{
  "contractName": "Faucet",
  "abi": [
    {
      "inputs": [
        {
          "internalType": "contract UnisonToken",
          "name": "_token",
          "type": "address"
        }
      ],
      "stateMutability": "nonpayable",
      "type": "constructor"
    },
    {
      "inputs": [
        {
          "internalType": "uint256",
          "name": "amount",
          "type": "uint256"
        }
      ],
      "name": "dumpToken",
      "outputs": [],
      "stateMutability": "nonpayable",
      "type": "function"
    },
    {
      "inputs": [],
      "name": "getToken",
      "outputs": [],
      "stateMutability": "nonpayable",
      "type": "function"
    }
  ],
  "bytecode": "0x608060405234801561001057600080fd5b5060405161067f38038061067f8339818101604052810190610032919061008d565b806000806101000a81548173ffffffffffffffffffffffffffffffffffffffff021916908373ffffffffffffffffffffffffffffffffffffffff16021790555050610111565b600081519050610087816100fa565b92915050565b60006020828403121561009f57600080fd5b60006100ad84828501610078565b91505092915050565b60006100c1826100da565b9050919050565b60006100d3826100b6565b9050919050565b600073ffffffffffffffffffffffffffffffffffffffff82169050919050565b610103816100c8565b811461010e57600080fd5b50565b61055f806101206000396000f3fe608060405234801561001057600080fd5b50600436106100365760003560e01c80630c6610531461003b57806321df0da714610057575b600080fd5b61005560048036038101906100509190610328565b610061565b005b61005f610208565b005b60008060009054906101000a900473ffffffffffffffffffffffffffffffffffffffff1673ffffffffffffffffffffffffffffffffffffffff1663dd62ed3e32306040518363ffffffff1660e01b81526004016100bf9291906103e7565b60206040518083038186803b1580156100d757600080fd5b505afa1580156100eb573d6000803e3d6000fd5b505050506040513d601f19601f8201168201806040525081019061010f9190610351565b905081811015610154576040517f08c379a000000000000000000000000000000000000000000000000000000000815260040161014b90610470565b60405180910390fd5b60008054906101000a900473ffffffffffffffffffffffffffffffffffffffff1673ffffffffffffffffffffffffffffffffffffffff166323b872dd3230856040518463ffffffff1660e01b81526004016101b193929190610410565b602060405180830381600087803b1580156101cb57600080fd5b505af11580156101df573d6000803e3d6000fd5b505050506040513d601f19601f8201168201806040525081019061020391906102ff565b505050565b60008054906101000a900473ffffffffffffffffffffffffffffffffffffffff1673ffffffffffffffffffffffffffffffffffffffff1663a9059cbb32670de0b6b3a76400006040518363ffffffff1660e01b815260040161026b929190610447565b602060405180830381600087803b15801561028557600080fd5b505af1158015610299573d6000803e3d6000fd5b505050506040513d601f19601f820116820180604052508101906102bd91906102ff565b50565b6000815190506102cf816104fb565b92915050565b6000813590506102e481610512565b92915050565b6000815190506102f981610512565b92915050565b60006020828403121561031157600080fd5b600061031f848285016102c0565b91505092915050565b60006020828403121561033a57600080fd5b6000610348848285016102d5565b91505092915050565b60006020828403121561036357600080fd5b6000610371848285016102ea565b91505092915050565b610383816104a1565b82525050565b610392816104e9565b82525050565b60006103a5601683610490565b91507f496e73756666696369656e7420616c6c6f77616e6365000000000000000000006000830152602082019050919050565b6103e1816104df565b82525050565b60006040820190506103fc600083018561037a565b610409602083018461037a565b9392505050565b6000606082019050610425600083018661037a565b610432602083018561037a565b61043f60408301846103d8565b949350505050565b600060408201905061045c600083018561037a565b6104696020830184610389565b9392505050565b6000602082019050818103600083015261048981610398565b9050919050565b600082825260208201905092915050565b60006104ac826104bf565b9050919050565b60008115159050919050565b600073ffffffffffffffffffffffffffffffffffffffff82169050919050565b6000819050919050565b60006104f4826104df565b9050919050565b610504816104b3565b811461050f57600080fd5b50565b61051b816104df565b811461052657600080fd5b5056fea26469706673582212201dccc1c76686a410949b45b3323e7a8fea5c6db88d644c3b330d0efa9756496c64736f6c63430008000033",
  "immutableReferences": {},
  "source": "// SPDX-License-Identifier: MIT\n\npragma solidity ^0.8.0;\n\nimport \"./UnisonToken.sol\";\n\ncontract Faucet{\n    UnisonToken private token;\n\n    constructor(UnisonToken _token){\n        token = _token;\n    }\n\n    // Adds token to the pool faucet works from\n    function dumpToken(uint256 amount) external{\n        uint256 allowed = token.allowance(tx.origin, address(this));\n        require(allowed >= amount, \"Insufficient allowance\");\n\n        token.transferFrom(tx.origin, address(this), amount);\n    }\n\n    function getToken() external{\n        token.transfer(tx.origin, 1000000000000000000); //1 UNT\n    }\n\n}",
  "sourcePath": "/home/hardunel/work/projects/SCV/SmartContract/src/Faucet.sol",
  "compiler": {
    "name": "solc",
    "version": "0.8.0+commit.c7dfd78e.Emscripten.clang"
  },
  "schemaVersion": "3.4.10",
  "updatedAt": "2022-12-16T10:43:58.667Z",
  "networkType": "ethereum",
  "devdoc": {
    "kind": "dev",
    "methods": {},
    "version": 1
  },
  "userdoc": {
    "kind": "user",
    "methods": {},
    "version": 1
  }
}