{
  "contractName": "FeeContract",
  "abi": [
    {
      "inputs": [
        {
          "internalType": "address",
          "name": "_owner",
          "type": "address"
        }
      ],
      "stateMutability": "nonpayable",
      "type": "constructor"
    },
    {
      "inputs": [],
      "name": "getPlatformFee",
      "outputs": [
        {
          "internalType": "uint256",
          "name": "",
          "type": "uint256"
        }
      ],
      "stateMutability": "view",
      "type": "function"
    },
    {
      "inputs": [],
      "name": "getStakingAmount",
      "outputs": [
        {
          "internalType": "uint256",
          "name": "",
          "type": "uint256"
        }
      ],
      "stateMutability": "view",
      "type": "function"
    },
    {
      "inputs": [
        {
          "internalType": "uint256",
          "name": "numActive",
          "type": "uint256"
        },
        {
          "internalType": "uint256",
          "name": "numJurors",
          "type": "uint256"
        }
      ],
      "name": "updatePlatformFee",
      "outputs": [],
      "stateMutability": "nonpayable",
      "type": "function"
    }
  ],
  "bytecode": "0x6080604052612710600155633b9aca0060025534801561001e57600080fd5b506040516104683803806104688339818101604052810190610040919061009b565b806000806101000a81548173ffffffffffffffffffffffffffffffffffffffff021916908373ffffffffffffffffffffffffffffffffffffffff1602179055505061010d565b600081519050610095816100f6565b92915050565b6000602082840312156100ad57600080fd5b60006100bb84828501610086565b91505092915050565b60006100cf826100d6565b9050919050565b600073ffffffffffffffffffffffffffffffffffffffff82169050919050565b6100ff816100c4565b811461010a57600080fd5b50565b61034c8061011c6000396000f3fe608060405234801561001057600080fd5b50600436106100415760003560e01c80636ea8bc10146100465780639aeb6b3014610064578063ced066c914610080575b600080fd5b61004e61009e565b60405161005b91906101f1565b60405180910390f35b61007e600480360381019061007991906101a6565b6100a8565b005b610088610187565b60405161009591906101f1565b60405180910390f35b6000600254905090565b60008054906101000a900473ffffffffffffffffffffffffffffffffffffffff1673ffffffffffffffffffffffffffffffffffffffff163373ffffffffffffffffffffffffffffffffffffffff161461010057600080fd5b600081141561010e57600190505b600082141561011c57600191505b60006113888261012c919061023d565b9050826103e861013c919061023d565b6002600082825461014d919061023d565b925050819055508060026000828254610166919061020c565b9250508190555061271060025411610182576127106002819055505b505050565b6000600154905090565b6000813590506101a0816102ff565b92915050565b600080604083850312156101b957600080fd5b60006101c785828601610191565b92505060206101d885828601610191565b9150509250929050565b6101eb81610297565b82525050565b600060208201905061020660008301846101e2565b92915050565b600061021782610297565b915061022283610297565b925082610232576102316102d0565b5b828204905092915050565b600061024882610297565b915061025383610297565b9250817fffffffffffffffffffffffffffffffffffffffffffffffffffffffffffffffff048311821515161561028c5761028b6102a1565b5b828202905092915050565b6000819050919050565b7f4e487b7100000000000000000000000000000000000000000000000000000000600052601160045260246000fd5b7f4e487b7100000000000000000000000000000000000000000000000000000000600052601260045260246000fd5b61030881610297565b811461031357600080fd5b5056fea264697066735822122082d44370ab1957e12fc7cc11eb6a2cd15bf3d7975b13235c9cec248455c015ca64736f6c63430008000033",
  "immutableReferences": {},
  "source": "// SPDX-License-Identifier: MIT\n\npragma solidity ^0.8.0;\n\ncontract FeeContract{\n    address owner;\n\n    uint stakingAmount = 10000;\n\n    uint platformFee = 1000000000;\n    uint constant targetRatio = 5000; //ratio of agreements to jurors multiplied by 1000\n\n    modifier onlyOwner(){\n        require(msg.sender == owner);\n        _;\n    }\n\n    constructor(address _owner){\n        owner = _owner;\n    }\n\n    function getPlatformFee() public view returns(uint){\n        return platformFee;\n    }\n\n    function getStakingAmount() public view returns(uint){\n        return stakingAmount;\n    }\n\n    function updatePlatformFee(uint numActive, uint numJurors) public onlyOwner(){\n        if(numJurors == 0)\n            numJurors = 1;\n        if(numActive == 0)\n            numActive = 1;\n\n        uint divider = numJurors * targetRatio;\n        // The 1000 * is to cancel out the fact that the divider is a fraction out of 1000\n        platformFee *= 1000 * numActive;\n        platformFee /= divider;\n \n        if(platformFee <= 10000)\n            platformFee = 10000;\n\n    }\n\n}",
  "sourcePath": "/home/hardunel/work/projects/SCV/SmartContract/src/FeeContract.sol",
  "compiler": {
    "name": "solc",
    "version": "0.8.0+commit.c7dfd78e.Emscripten.clang"
  },
  "schemaVersion": "3.4.10",
  "updatedAt": "2022-11-11T04:23:58.733Z",
  "devdoc": {
    "kind": "dev",
    "methods": {},
    "version": 1
  },
  "userdoc": {
    "kind": "user",
    "methods": {},
    "version": 1
  }
}