{
  "contractName": "JurorStore",
  "abi": [
    {
      "inputs": [
        {
          "internalType": "address",
          "name": "_owner",
          "type": "address"
        },
        {
          "internalType": "contract RandomSource",
          "name": "rs",
          "type": "address"
        }
      ],
      "stateMutability": "nonpayable",
      "type": "constructor"
    },
    {
      "inputs": [
        {
          "internalType": "address",
          "name": "j",
          "type": "address"
        }
      ],
      "name": "addJuror",
      "outputs": [
        {
          "internalType": "uint256",
          "name": "",
          "type": "uint256"
        }
      ],
      "stateMutability": "nonpayable",
      "type": "function"
    },
    {
      "inputs": [
        {
          "internalType": "address",
          "name": "a",
          "type": "address"
        }
      ],
      "name": "isJuror",
      "outputs": [
        {
          "internalType": "bool",
          "name": "",
          "type": "bool"
        }
      ],
      "stateMutability": "view",
      "type": "function"
    },
    {
      "inputs": [
        {
          "internalType": "address",
          "name": "a",
          "type": "address"
        }
      ],
      "name": "getStrikes",
      "outputs": [
        {
          "internalType": "uint256",
          "name": "",
          "type": "uint256"
        }
      ],
      "stateMutability": "view",
      "type": "function"
    },
    {
      "inputs": [],
      "name": "getNumJurors",
      "outputs": [
        {
          "internalType": "uint256",
          "name": "",
          "type": "uint256"
        }
      ],
      "stateMutability": "view",
      "type": "function"
    },
    {
      "inputs": [
        {
          "internalType": "address",
          "name": "j",
          "type": "address"
        }
      ],
      "name": "removeJuror",
      "outputs": [],
      "stateMutability": "nonpayable",
      "type": "function"
    },
    {
      "inputs": [
        {
          "internalType": "address",
          "name": "j",
          "type": "address"
        }
      ],
      "name": "addStrike",
      "outputs": [
        {
          "internalType": "bool",
          "name": "",
          "type": "bool"
        }
      ],
      "stateMutability": "nonpayable",
      "type": "function"
    },
    {
      "inputs": [
        {
          "internalType": "uint256",
          "name": "count",
          "type": "uint256"
        },
        {
          "internalType": "uint256",
          "name": "seed",
          "type": "uint256"
        },
        {
          "internalType": "address[]",
          "name": "noUse",
          "type": "address[]"
        }
      ],
      "name": "assignJury",
      "outputs": [
        {
          "internalType": "address[]",
          "name": "jury",
          "type": "address[]"
        }
      ],
      "stateMutability": "nonpayable",
      "type": "function"
    }
  ],
  "bytecode": "0x60806040523480156200001157600080fd5b5060405162001a0e38038062001a0e833981810160405281019062000037919062000152565b816000806101000a81548173ffffffffffffffffffffffffffffffffffffffff021916908373ffffffffffffffffffffffffffffffffffffffff16021790555080600160006101000a81548173ffffffffffffffffffffffffffffffffffffffff021916908373ffffffffffffffffffffffffffffffffffffffff160217905550600360009080600181540180825580915050600190039060005260206000200160009091909190916101000a81548173ffffffffffffffffffffffffffffffffffffffff021916908373ffffffffffffffffffffffffffffffffffffffff16021790555050506200020f565b6000815190506200013581620001db565b92915050565b6000815190506200014c81620001f5565b92915050565b600080604083850312156200016657600080fd5b6000620001768582860162000124565b925050602062000189858286016200013b565b9150509250929050565b6000620001a082620001bb565b9050919050565b6000620001b48262000193565b9050919050565b600073ffffffffffffffffffffffffffffffffffffffff82169050919050565b620001e68162000193565b8114620001f257600080fd5b50565b6200020081620001a7565b81146200020c57600080fd5b50565b6117ef806200021f6000396000f3fe608060405234801561001057600080fd5b506004361061007d5760003560e01c80636528a0201161005b5780636528a020146101125780637b1e52a514610130578063cb552b4614610160578063f6cd25f0146101905761007d565b806308a18711146100825780632037a7aa146100b25780632bfd740f146100e2575b600080fd5b61009c600480360381019061009791906110d7565b6101ac565b6040516100a99190611424565b60405180910390f35b6100cc60048036038101906100c79190611085565b610899565b6040516100d99190611446565b60405180910390f35b6100fc60048036038101906100f79190611085565b6108e5565b6040516101099190611446565b60405180910390f35b61011a610ac4565b6040516101279190611521565b60405180910390f35b61014a60048036038101906101459190611085565b610ace565b6040516101579190611521565b60405180910390f35b61017a60048036038101906101759190611085565b610b17565b6040516101879190611521565b60405180910390f35b6101aa60048036038101906101a59190611085565b610d48565b005b606060008054906101000a900473ffffffffffffffffffffffffffffffffffffffff1673ffffffffffffffffffffffffffffffffffffffff163373ffffffffffffffffffffffffffffffffffffffff161461020657600080fd5b60008511610249576040517f08c379a0000000000000000000000000000000000000000000000000000000008152600401610240906114a1565b60405180910390fd5b60006002549050600084849050905060005b81811015610319576000600460008888858181106102a2577f4e487b7100000000000000000000000000000000000000000000000000000000600052603260045260246000fd5b90506020020160208101906102b79190611085565b73ffffffffffffffffffffffffffffffffffffffff1673ffffffffffffffffffffffffffffffffffffffff168152602001908152602001600020541461030657828061030290611689565b9350505b8080610311906116b3565b91505061025b565b508187111561035d576040517f08c379a000000000000000000000000000000000000000000000000000000000815260040161035490611461565b60405180910390fd5b60008767ffffffffffffffff81111561039f577f4e487b7100000000000000000000000000000000000000000000000000000000600052604160045260246000fd5b6040519080825280602002602001820160405280156103cd5781602001602082028036833780820191505090505b50905060008867ffffffffffffffff811115610412577f4e487b7100000000000000000000000000000000000000000000000000000000600052604160045260246000fd5b6040519080825280602002602001820160405280156104405781602001602082028036833780820191505090505b5090506000600160009054906101000a900473ffffffffffffffffffffffffffffffffffffffff1673ffffffffffffffffffffffffffffffffffffffff1663e8b81a228a6040518263ffffffff1660e01b81526004016104a09190611521565b60206040518083038186803b1580156104b857600080fd5b505afa1580156104cc573d6000803e3d6000fd5b505050506040513d601f19601f820116820180604052508101906104f091906110ae565b905060005b8a8110156107fd57600060016002548461050f91906116fc565b6105199190611586565b905060005b8061068e576006600083815260200190815260200160002060009054906101000a900460ff1661065a576001905060005b87811015610658578b8b82818110610590577f4e487b7100000000000000000000000000000000000000000000000000000000600052603260045260246000fd5b90506020020160208101906105a59190611085565b73ffffffffffffffffffffffffffffffffffffffff16600384815481106105f5577f4e487b7100000000000000000000000000000000000000000000000000000000600052603260045260246000fd5b9060005260206000200160009054906101000a900473ffffffffffffffffffffffffffffffffffffffff1673ffffffffffffffffffffffffffffffffffffffff1614156106455760009150610658565b8080610650906116b3565b91505061054f565b505b8061068957818061066a906116b3565b925050600160025461067c9190611586565b82141561068857600191505b5b61051e565b60016006600084815260200190815260200160002060006101000a81548160ff021916908315150217905550818684815181106106f4577f4e487b7100000000000000000000000000000000000000000000000000000000600052603260045260246000fd5b6020026020010181815250506003828154811061073a577f4e487b7100000000000000000000000000000000000000000000000000000000600052603260045260246000fd5b9060005260206000200160009054906101000a900473ffffffffffffffffffffffffffffffffffffffff1685848151811061079e577f4e487b7100000000000000000000000000000000000000000000000000000000600052603260045260246000fd5b602002602001019073ffffffffffffffffffffffffffffffffffffffff16908173ffffffffffffffffffffffffffffffffffffffff1681525050600254846107e691906115dc565b9350505080806107f5906116b3565b9150506104f5565b5060005b8a81101561088857600060066000868481518110610848577f4e487b7100000000000000000000000000000000000000000000000000000000600052603260045260246000fd5b6020026020010151815260200190815260200160002060006101000a81548160ff0219169083151502179055508080610880906116b3565b915050610801565b508195505050505050949350505050565b600080600460008473ffffffffffffffffffffffffffffffffffffffff1673ffffffffffffffffffffffffffffffffffffffff1681526020019081526020016000205414159050919050565b60008060009054906101000a900473ffffffffffffffffffffffffffffffffffffffff1673ffffffffffffffffffffffffffffffffffffffff163373ffffffffffffffffffffffffffffffffffffffff161461094057600080fd5b6000600460008473ffffffffffffffffffffffffffffffffffffffff1673ffffffffffffffffffffffffffffffffffffffff1681526020019081526020016000205411806109cd57506000600560008473ffffffffffffffffffffffffffffffffffffffff1673ffffffffffffffffffffffffffffffffffffffff16815260200190815260200160002054115b610a0c576040517f08c379a0000000000000000000000000000000000000000000000000000000008152600401610a0390611501565b60405180910390fd5b600560008373ffffffffffffffffffffffffffffffffffffffff1673ffffffffffffffffffffffffffffffffffffffff1681526020019081526020016000206000815480929190610a5c906116b3565b91905055506003600560008473ffffffffffffffffffffffffffffffffffffffff1673ffffffffffffffffffffffffffffffffffffffff1681526020019081526020016000205410610aba57610ab182610d48565b60019050610abf565b600090505b919050565b6000600254905090565b6000600560008373ffffffffffffffffffffffffffffffffffffffff1673ffffffffffffffffffffffffffffffffffffffff168152602001908152602001600020549050919050565b60008060009054906101000a900473ffffffffffffffffffffffffffffffffffffffff1673ffffffffffffffffffffffffffffffffffffffff163373ffffffffffffffffffffffffffffffffffffffff1614610b7257600080fd5b6000600460008473ffffffffffffffffffffffffffffffffffffffff1673ffffffffffffffffffffffffffffffffffffffff1681526020019081526020016000205414610bf4576040517f08c379a0000000000000000000000000000000000000000000000000000000008152600401610beb906114e1565b60405180910390fd5b6003600560008473ffffffffffffffffffffffffffffffffffffffff1673ffffffffffffffffffffffffffffffffffffffff1681526020019081526020016000205410610c76576040517f08c379a0000000000000000000000000000000000000000000000000000000008152600401610c6d906114c1565b60405180910390fd5b600060038054905090506003839080600181540180825580915050600190039060005260206000200160009091909190916101000a81548173ffffffffffffffffffffffffffffffffffffffff021916908373ffffffffffffffffffffffffffffffffffffffff16021790555060026000815480929190610cf6906116b3565b919050555080600460008573ffffffffffffffffffffffffffffffffffffffff1673ffffffffffffffffffffffffffffffffffffffff1681526020019081526020016000208190555080915050919050565b60008054906101000a900473ffffffffffffffffffffffffffffffffffffffff1673ffffffffffffffffffffffffffffffffffffffff163373ffffffffffffffffffffffffffffffffffffffff1614610da057600080fd5b6000600460008373ffffffffffffffffffffffffffffffffffffffff1673ffffffffffffffffffffffffffffffffffffffff1681526020019081526020016000205490506000811415610e28576040517f08c379a0000000000000000000000000000000000000000000000000000000008152600401610e1f90611481565b60405180910390fd5b60006001600380549050610e3c919061160d565b9050808214610f2d5760038181548110610e7f577f4e487b7100000000000000000000000000000000000000000000000000000000600052603260045260246000fd5b9060005260206000200160009054906101000a900473ffffffffffffffffffffffffffffffffffffffff1660038381548110610ee4577f4e487b7100000000000000000000000000000000000000000000000000000000600052603260045260246000fd5b9060005260206000200160006101000a81548173ffffffffffffffffffffffffffffffffffffffff021916908373ffffffffffffffffffffffffffffffffffffffff1602179055505b6003805480610f65577f4e487b7100000000000000000000000000000000000000000000000000000000600052603160045260246000fd5b6001900381819060005260206000200160006101000a81549073ffffffffffffffffffffffffffffffffffffffff0219169055905560026000815480929190610fad90611689565b91905055506000600460008573ffffffffffffffffffffffffffffffffffffffff1673ffffffffffffffffffffffffffffffffffffffff16815260200190815260200160002081905550505050565b60008135905061100b8161178b565b92915050565b60008083601f84011261102357600080fd5b8235905067ffffffffffffffff81111561103c57600080fd5b60208301915083602082028301111561105457600080fd5b9250929050565b60008135905061106a816117a2565b92915050565b60008151905061107f816117a2565b92915050565b60006020828403121561109757600080fd5b60006110a584828501610ffc565b91505092915050565b6000602082840312156110c057600080fd5b60006110ce84828501611070565b91505092915050565b600080600080606085870312156110ed57600080fd5b60006110fb8782880161105b565b945050602061110c8782880161105b565b935050604085013567ffffffffffffffff81111561112957600080fd5b61113587828801611011565b925092505092959194509250565b600061114f838361115b565b60208301905092915050565b61116481611641565b82525050565b60006111758261154c565b61117f8185611564565b935061118a8361153c565b8060005b838110156111bb5781516111a28882611143565b97506111ad83611557565b92505060018101905061118e565b5085935050505092915050565b6111d181611653565b82525050565b60006111e4603183611575565b91507f4a7572792073697a6520697320746f6f206269672c206e6f7420656e6f75676860008301527f206a75726f727320617661696c61626c650000000000000000000000000000006020830152604082019050919050565b600061124a604083611575565b91507f596f75206e65656420746f2062652061206a75726f7220696e2074686520666960008301527f72737420706c61636520696e206f7264657220746f2062652072656d6f7665646020830152604082019050919050565b60006112b0602283611575565b91507f4a7572792073697a65206d757374206265206120706f7369746976652076616c60008301527f75650000000000000000000000000000000000000000000000000000000000006020830152604082019050919050565b6000611316602783611575565b91507f596f752068617665206265656e2062616e6e65642066726f6d206265696e672060008301527f61206a75726f72000000000000000000000000000000000000000000000000006020830152604082019050919050565b600061137c601783611575565b91507f596f752061726520616c72656164792061206a75726f720000000000000000006000830152602082019050919050565b60006113bc602e83611575565b91507f537065636966696564206a75726f72206973206e6f742063757272656e746c7960008301527f20696e207468652073797374656d0000000000000000000000000000000000006020830152604082019050919050565b61141e8161167f565b82525050565b6000602082019050818103600083015261143e818461116a565b905092915050565b600060208201905061145b60008301846111c8565b92915050565b6000602082019050818103600083015261147a816111d7565b9050919050565b6000602082019050818103600083015261149a8161123d565b9050919050565b600060208201905081810360008301526114ba816112a3565b9050919050565b600060208201905081810360008301526114da81611309565b9050919050565b600060208201905081810360008301526114fa8161136f565b9050919050565b6000602082019050818103600083015261151a816113af565b9050919050565b60006020820190506115366000830184611415565b92915050565b6000819050602082019050919050565b600081519050919050565b6000602082019050919050565b600082825260208201905092915050565b600082825260208201905092915050565b60006115918261167f565b915061159c8361167f565b9250827fffffffffffffffffffffffffffffffffffffffffffffffffffffffffffffffff038211156115d1576115d061172d565b5b828201905092915050565b60006115e78261167f565b91506115f28361167f565b9250826116025761160161175c565b5b828204905092915050565b60006116188261167f565b91506116238361167f565b9250828210156116365761163561172d565b5b828203905092915050565b600061164c8261165f565b9050919050565b60008115159050919050565b600073ffffffffffffffffffffffffffffffffffffffff82169050919050565b6000819050919050565b60006116948261167f565b915060008214156116a8576116a761172d565b5b600182039050919050565b60006116be8261167f565b91507fffffffffffffffffffffffffffffffffffffffffffffffffffffffffffffffff8214156116f1576116f061172d565b5b600182019050919050565b60006117078261167f565b91506117128361167f565b9250826117225761172161175c565b5b828206905092915050565b7f4e487b7100000000000000000000000000000000000000000000000000000000600052601160045260246000fd5b7f4e487b7100000000000000000000000000000000000000000000000000000000600052601260045260246000fd5b61179481611641565b811461179f57600080fd5b50565b6117ab8161167f565b81146117b657600080fd5b5056fea26469706673582212200dbd17d1b5d20c612a8c8da5133b57c53efb85a757a5d558597a750525dacb4d64736f6c63430008000033",
  "immutableReferences": {},
  "source": "// SPDX-License-Identifier: MIT\n\npragma solidity ^0.8.0;\n\nimport \"./Utilities/RandomSource.sol\";\n\ncontract JurorStore{\n    address owner;\n    RandomSource randomSource;\n\n    uint numJurors;\n    address[] jurors;\n    mapping(address => uint256) jurorIndex;\n    mapping(address => uint256) strikes;\n\n    uint constant maxStrikes = 3;\n\n    // Restricts usage of any function with this modifier to the owner (the Verifier contract)\n    modifier onlyOwner(){\n        require(msg.sender == owner);\n        _;\n    }\n\n    constructor(address _owner, RandomSource rs){\n        owner = _owner;\n        randomSource = rs;\n\n        // index 0 is kept out of use since a 0 in the mapping means that value doesn't exist\n        jurors.push(address(0));\n    }\n\n    function addJuror(address j) public onlyOwner() returns(uint256){\n        require(jurorIndex[j] == 0, \"You are already a juror\");\n        require(strikes[j] < maxStrikes, \"You have been banned from being a juror\");\n\n        uint256 index = jurors.length;\n        jurors.push(j);\n        numJurors++;\n        jurorIndex[j] = index;\n        return index;\n    }\n\n    function isJuror(address a) public view returns(bool){\n        return (jurorIndex[a] != 0);\n    }\n\n    function getStrikes(address a) public view returns(uint){\n        return strikes[a];\n    }\n\n    function getNumJurors() public view returns(uint){\n        return numJurors;\n    }\n\n    function removeJuror(address j) public onlyOwner(){\n        // Address 0 can't be removed since:\n        // a) it isn't in jurorIndex so it's index is 0\n        // b) It's index really is 0 so it would return even if it were in the mapping\n\n        uint256 index = jurorIndex[j];\n        require(index != 0, \"You need to be a juror in the first place in order to be removed\");\n        \n        uint256 last = jurors.length -1;\n\n        if(index != last)\n            jurors[index] = jurors[last];\n\n        jurors.pop();\n        numJurors--;\n        jurorIndex[j] = 0;\n    }\n\n\n    // record strike against juror. If max strikes has been reached,zremove juror from pool\n    function addStrike(address j) public onlyOwner() returns(bool){\n        // Strikes can be placed against already-banned jurors\n        require(jurorIndex[j] > 0 || strikes[j] > 0, \"Specified juror is not currently in the system\");\n\n        strikes[j]++;\n        if(strikes[j] >= maxStrikes){\n            removeJuror(j);\n            return true;\n        }\n        return false;\n    }\n\n    // Cleared after every execution of assignJury\n    // It's only here since mappings can't be declared in a function scope\n    mapping(uint =>bool) assignedJurors;\n\n    // Assigns a jury of specified size, if possible\n    // noUse contains addresses that can't be jurors for this case.\n    // parties involved in agreement should be put in noUse list\n    function assignJury(uint count, uint seed, address[] calldata noUse)\n             public onlyOwner() returns(address[] memory jury){\n        require(count > 0, \"Jury size must be a positive value\");\n\n        uint numAvailableJurors = numJurors;\n        uint noUseLen = noUse.length;\n\n        for(uint i=0; i<noUseLen; i++){\n            if(jurorIndex[noUse[i]] != 0)\n                numAvailableJurors--;\n        }\n\n        require(count <= numAvailableJurors, \"Jury size is too big, not enough jurors available\");\n\n        uint[] memory indices = new uint[](count);\n        address[] memory result = new address[](count);\n\n        uint val = randomSource.getRandVal(seed);\n\n\n        for(uint i=0; i<count; i++){\n            uint index = val % numJurors + 1;\n            bool valid = false;\n\n            while(!valid){\n                if(!assignedJurors[index]){\n                    valid = true;\n\n                    for(uint j=0; j<noUseLen; j++){\n                        if(jurors[index] == noUse[j]){\n                            valid = false;\n                            break;\n                        }\n                    }\n                }\n                if(!valid){\n                    // Increment by one, but wrap around when end of list is reached\n                    index++;\n                    if(index == numJurors + 1)\n                        index = 1;\n                }\n            }\n\n            \n            assignedJurors[index] = true;\n            indices[i] = index;\n            result[i] = jurors[index];\n\n            val = val / numJurors;\n        }\n\n        for(uint i=0; i<count; i++){\n            assignedJurors[indices[i]] = false;\n        }\n\n        return result;\n    }\n\n}\n",
  "sourcePath": "/home/hardunel/work/projects/SCV/SmartContract/src/JurorStore.sol",
  "compiler": {
    "name": "solc",
    "version": "0.8.0+commit.c7dfd78e.Emscripten.clang"
  },
  "schemaVersion": "3.4.10",
  "updatedAt": "2022-11-11T04:23:58.734Z",
  "devdoc": {
    "kind": "dev",
    "methods": {},
    "version": 1
  },
  "userdoc": {
    "kind": "user",
    "methods": {},
    "version": 1
  }
}