{
  "contractName": "RandomSource",
  "abi": [
    {
      "inputs": [],
      "name": "getRandVal",
      "outputs": [
        {
          "internalType": "uint256",
          "name": "",
          "type": "uint256"
        }
      ],
      "stateMutability": "view",
      "type": "function",
      "constant": true
    },
    {
      "inputs": [
        {
          "internalType": "uint256",
          "name": "seed",
          "type": "uint256"
        }
      ],
      "name": "getRandVal",
      "outputs": [
        {
          "internalType": "uint256",
          "name": "",
          "type": "uint256"
        }
      ],
      "stateMutability": "view",
      "type": "function",
      "constant": true
    }
  ],
  "bytecode": "0x608060405234801561001057600080fd5b506102ad806100206000396000f3fe608060405234801561001057600080fd5b50600436106100365760003560e01c8063e0881e521461003b578063e8b81a2214610059575b600080fd5b610043610089565b60405161005091906101d8565b60405180910390f35b610073600480360381019061006e91906101a0565b6100cb565b60405161008091906101d8565b60405180910390f35b600080434060001c905060006001436100a291906101f3565b11156100c45760006001436100b791906101f3565b4060001c90508082189150505b8091505090565b600080434060001c905060008114156100f2576fcb3ac66d0d41caf6ca2b612067fe73de90505b600061010084166101000382901c9050610100848161013a577f4e487b7100000000000000000000000000000000000000000000000000000000600052601260045260246000fd5b0682901b915080820291506000600143031115610181576000600143034060001c9050600081141561017a576f6967777748efec589589d8bf3acaeb4490505b8083189250505b8192505050919050565b60008135905061019a81610260565b92915050565b6000602082840312156101b257600080fd5b60006101c08482850161018b565b91505092915050565b6101d281610227565b82525050565b60006020820190506101ed60008301846101c9565b92915050565b60006101fe82610227565b915061020983610227565b92508282101561021c5761021b610231565b5b828203905092915050565b6000819050919050565b7f4e487b7100000000000000000000000000000000000000000000000000000000600052601160045260246000fd5b61026981610227565b811461027457600080fd5b5056fea26469706673582212200a3515b5f8e314f3ff3b0ef28baa1972860c0c69645dece0d7e7d430dd68e1ab64736f6c63430008000033",
  "immutableReferences": {},
  "source": "// SPDX-License-Identifier: MIT\n\npragma solidity ^0.8.0;\n\n// Separated into own contract to make possible oracle integation easier\n\ncontract RandomSource{\n    // A pseudorandom value is calculated by taking the XOR of the last two block hashes \n    // XOR should maintain a 50/50 ratio between 0's and 1's, keeping the distribution uniform\n\n    // Only generates one random value per block\n    function getRandVal() public view returns(uint256){\n        uint256 newBlock = uint256(blockhash(block.number));\n\n        if(block.number-1 > 0){\n            // Should be the case every time, the check might be needed on fresh blockchains, though\n            uint256 oldBlock = uint256(blockhash(block.number-1));\n            newBlock  = newBlock ^ oldBlock;\n        }\n        return newBlock;\n    }\n\n    // Combines seed with block value, so seed is not repeatable in different blocks\n    function getRandVal(uint256 seed) public view returns(uint256){\n        unchecked{\n        uint256 newBlock = uint256(blockhash(block.number));\n        if(newBlock == 0){\n            // Due to a bug in (probably) truffle, blockhash always returns 0 in tests\n            // This piece of code won't ever run if deployed\n            newBlock = 0xcb3ac66d0d41caf6ca2b612067fe73de;\n        }\n\n        uint256 temp = newBlock >> (256 - (seed & 256));\n        newBlock = newBlock << (seed % 256);\n\n        newBlock = newBlock * temp;\n\n        if(block.number-1 > 0){\n            uint256 oldBlock = uint256(blockhash(block.number-1));\n            if(oldBlock == 0){\n                // Due to a bug in (probably) truffle, blockhash always returns 0 in testing\n                // This piece of code won't ever run if deployed\n                oldBlock = 0x6967777748efec589589d8bf3acaeb44;\n            }\n            newBlock  = newBlock ^ oldBlock;\n        }\n        return newBlock;\n        }\n    }\n}",
  "sourcePath": "/home/hardunel/work/projects/SCV/SmartContract/src/Utilities/RandomSource.sol",
  "compiler": {
    "name": "solc",
    "version": "0.8.0+commit.c7dfd78e.Emscripten.clang"
  },
  "schemaVersion": "3.4.10",
  "updatedAt": "2022-12-16T10:43:58.664Z",
  "networkType": "ethereum",
  "devdoc": {
    "kind": "dev",
    "methods": {},
    "version": 1
  },
  "userdoc": {
    "kind": "user",
    "methods": {},
    "version": 1
  }
}