{
  "contractName": "Verifier",
  "abi": [
    {
      "inputs": [
        {
          "internalType": "contract UnisonToken",
          "name": "token",
          "type": "address"
        },
        {
          "internalType": "contract RandomSource",
          "name": "randomSource",
          "type": "address"
        }
      ],
      "stateMutability": "nonpayable",
      "type": "constructor"
    },
    {
      "anonymous": false,
      "inputs": [
        {
          "indexed": false,
          "internalType": "uint256",
          "name": "agreeID",
          "type": "uint256"
        }
      ],
      "name": "AcceptAgreement",
      "type": "event"
    },
    {
      "anonymous": false,
      "inputs": [
        {
          "indexed": false,
          "internalType": "uint256",
          "name": "agreeID",
          "type": "uint256"
        }
      ],
      "name": "ActiveAgreement",
      "type": "event"
    },
    {
      "anonymous": false,
      "inputs": [
        {
          "indexed": false,
          "internalType": "address",
          "name": "juror",
          "type": "address"
        }
      ],
      "name": "AddJuror",
      "type": "event"
    },
    {
      "anonymous": false,
      "inputs": [
        {
          "indexed": false,
          "internalType": "uint256",
          "name": "agreeID",
          "type": "uint256"
        }
      ],
      "name": "CloseAgreement",
      "type": "event"
    },
    {
      "anonymous": false,
      "inputs": [
        {
          "indexed": false,
          "internalType": "address",
          "name": "party1",
          "type": "address"
        },
        {
          "indexed": false,
          "internalType": "address",
          "name": "party2",
          "type": "address"
        },
        {
          "indexed": false,
          "internalType": "uint256",
          "name": "agreeID",
          "type": "uint256"
        },
        {
          "indexed": false,
          "internalType": "string",
          "name": "uuid",
          "type": "string"
        }
      ],
      "name": "CreateAgreement",
      "type": "event"
    },
    {
      "anonymous": false,
      "inputs": [
        {
          "indexed": false,
          "internalType": "uint256",
          "name": "agreeID",
          "type": "uint256"
        },
        {
          "indexed": false,
          "internalType": "address[]",
          "name": "jury",
          "type": "address[]"
        }
      ],
      "name": "JuryAssigned",
      "type": "event"
    },
    {
      "anonymous": false,
      "inputs": [
        {
          "indexed": false,
          "internalType": "address",
          "name": "juror",
          "type": "address"
        }
      ],
      "name": "RemoveJuror",
      "type": "event"
    },
    {
      "inputs": [
        {
          "internalType": "address",
          "name": "party2",
          "type": "address"
        },
        {
          "internalType": "uint256",
          "name": "resolutionTime",
          "type": "uint256"
        },
        {
          "internalType": "string",
          "name": "text",
          "type": "string"
        },
        {
          "internalType": "string",
          "name": "uuid",
          "type": "string"
        },
        {
          "internalType": "contract IERC20[]",
          "name": "tokens",
          "type": "address[]"
        },
        {
          "internalType": "uint256[]",
          "name": "amount",
          "type": "uint256[]"
        },
        {
          "internalType": "bool[]",
          "name": "direction",
          "type": "bool[]"
        }
      ],
      "name": "createAgreement",
      "outputs": [],
      "stateMutability": "nonpayable",
      "type": "function"
    },
    {
      "inputs": [
        {
          "internalType": "uint256",
          "name": "agreeID",
          "type": "uint256"
        }
      ],
      "name": "acceptAgreement",
      "outputs": [],
      "stateMutability": "nonpayable",
      "type": "function"
    },
    {
      "inputs": [
        {
          "internalType": "uint256",
          "name": "agreeID",
          "type": "uint256"
        }
      ],
      "name": "rejectAgreement",
      "outputs": [],
      "stateMutability": "nonpayable",
      "type": "function"
    },
    {
      "inputs": [
        {
          "internalType": "uint256",
          "name": "agreeID",
          "type": "uint256"
        }
      ],
      "name": "payIn",
      "outputs": [],
      "stateMutability": "nonpayable",
      "type": "function"
    },
    {
      "inputs": [
        {
          "internalType": "uint256",
          "name": "agreeID",
          "type": "uint256"
        }
      ],
      "name": "payPlatformFee",
      "outputs": [],
      "stateMutability": "nonpayable",
      "type": "function"
    },
    {
      "inputs": [
        {
          "internalType": "uint256",
          "name": "agreeID",
          "type": "uint256"
        }
      ],
      "name": "getAgreement",
      "outputs": [
        {
          "components": [
            {
              "internalType": "string",
              "name": "uuid",
              "type": "string"
            },
            {
              "internalType": "address",
              "name": "party1",
              "type": "address"
            },
            {
              "internalType": "address",
              "name": "party2",
              "type": "address"
            },
            {
              "internalType": "uint256",
              "name": "resolutionTime",
              "type": "uint256"
            },
            {
              "internalType": "string",
              "name": "text",
              "type": "string"
            },
            {
              "internalType": "uint256",
              "name": "platformFee",
              "type": "uint256"
            },
            {
              "internalType": "uint256",
              "name": "feePaid",
              "type": "uint256"
            },
            {
              "internalType": "address",
              "name": "feePayer",
              "type": "address"
            },
            {
              "internalType": "enum AgreementLib.AgreementState",
              "name": "state",
              "type": "uint8"
            },
            {
              "internalType": "enum AgreementLib.Vote",
              "name": "party1Vote",
              "type": "uint8"
            },
            {
              "internalType": "enum AgreementLib.Vote",
              "name": "party2Vote",
              "type": "uint8"
            },
            {
              "components": [
                {
                  "internalType": "contract IERC20",
                  "name": "token",
                  "type": "address"
                },
                {
                  "internalType": "uint256",
                  "name": "amount",
                  "type": "uint256"
                },
                {
                  "internalType": "address",
                  "name": "from",
                  "type": "address"
                },
                {
                  "internalType": "address",
                  "name": "to",
                  "type": "address"
                },
                {
                  "internalType": "bool",
                  "name": "paidIn",
                  "type": "bool"
                }
              ],
              "internalType": "struct PaymentInfoLib.PaymentInfo[]",
              "name": "payments",
              "type": "tuple[]"
            }
          ],
          "internalType": "struct AgreementLib.ReturnAgreement",
          "name": "",
          "type": "tuple"
        }
      ],
      "stateMutability": "view",
      "type": "function",
      "constant": true
    },
    {
      "inputs": [
        {
          "internalType": "uint256",
          "name": "agreeID",
          "type": "uint256"
        }
      ],
      "name": "getJury",
      "outputs": [
        {
          "components": [
            {
              "internalType": "bool",
              "name": "assigned",
              "type": "bool"
            },
            {
              "internalType": "uint256",
              "name": "deadline",
              "type": "uint256"
            },
            {
              "internalType": "address[]",
              "name": "jurors",
              "type": "address[]"
            },
            {
              "internalType": "enum AgreementLib.Vote[]",
              "name": "votes",
              "type": "uint8[]"
            }
          ],
          "internalType": "struct AgreementLib.ReturnJury",
          "name": "",
          "type": "tuple"
        }
      ],
      "stateMutability": "view",
      "type": "function",
      "constant": true
    },
    {
      "inputs": [
        {
          "internalType": "uint256",
          "name": "agreeID",
          "type": "uint256"
        }
      ],
      "name": "getEvidence",
      "outputs": [
        {
          "components": [
            {
              "internalType": "string[]",
              "name": "url",
              "type": "string[]"
            },
            {
              "internalType": "uint256[]",
              "name": "evidenceHash",
              "type": "uint256[]"
            }
          ],
          "internalType": "struct AgreementLib.ReturnEvidence",
          "name": "",
          "type": "tuple"
        }
      ],
      "stateMutability": "view",
      "type": "function",
      "constant": true
    },
    {
      "inputs": [
        {
          "internalType": "uint256",
          "name": "agreeID",
          "type": "uint256"
        },
        {
          "internalType": "string",
          "name": "url",
          "type": "string"
        },
        {
          "internalType": "uint256",
          "name": "evidenceHash",
          "type": "uint256"
        }
      ],
      "name": "addEvidence",
      "outputs": [],
      "stateMutability": "nonpayable",
      "type": "function"
    },
    {
      "inputs": [
        {
          "internalType": "uint256",
          "name": "agreeID",
          "type": "uint256"
        },
        {
          "internalType": "enum AgreementLib.Vote",
          "name": "vote",
          "type": "uint8"
        }
      ],
      "name": "voteResolution",
      "outputs": [],
      "stateMutability": "nonpayable",
      "type": "function"
    },
    {
      "inputs": [],
      "name": "addJuror",
      "outputs": [],
      "stateMutability": "nonpayable",
      "type": "function"
    },
    {
      "inputs": [],
      "name": "removeJuror",
      "outputs": [],
      "stateMutability": "nonpayable",
      "type": "function"
    },
    {
      "inputs": [
        {
          "internalType": "address",
          "name": "a",
          "type": "address"
        }
      ],
      "name": "isJuror",
      "outputs": [
        {
          "internalType": "bool",
          "name": "",
          "type": "bool"
        }
      ],
      "stateMutability": "view",
      "type": "function",
      "constant": true
    },
    {
      "inputs": [
        {
          "internalType": "address",
          "name": "a",
          "type": "address"
        }
      ],
      "name": "getStrikes",
      "outputs": [
        {
          "internalType": "uint256",
          "name": "",
          "type": "uint256"
        }
      ],
      "stateMutability": "view",
      "type": "function",
      "constant": true
    },
    {
      "inputs": [
        {
          "internalType": "uint256",
          "name": "agreeID",
          "type": "uint256"
        },
        {
          "internalType": "enum AgreementLib.Vote",
          "name": "vote",
          "type": "uint8"
        }
      ],
      "name": "jurorVote",
      "outputs": [],
      "stateMutability": "nonpayable",
      "type": "function"
    },
    {
      "inputs": [
        {
          "internalType": "uint256",
          "name": "agreeID",
          "type": "uint256"
        }
      ],
      "name": "triggerPayout",
      "outputs": [],
      "stateMutability": "nonpayable",
      "type": "function"
    },
    {
      "inputs": [],
      "name": "getPlatformFee",
      "outputs": [
        {
          "internalType": "uint256",
          "name": "",
          "type": "uint256"
        }
      ],
      "stateMutability": "view",
      "type": "function",
      "constant": true
    },
    {
      "inputs": [],
      "name": "getStakingAmount",
      "outputs": [
        {
          "internalType": "uint256",
          "name": "",
          "type": "uint256"
        }
      ],
      "stateMutability": "view",
      "type": "function",
      "constant": true
    }
  ],
  "bytecode": "0x6080604052600080556000600155600a6005553480156200001f57600080fd5b5060405162008162380380620081628339818101604052810190620000459190620001cc565b81600660006101000a81548173ffffffffffffffffffffffffffffffffffffffff021916908373ffffffffffffffffffffffffffffffffffffffff16021790555030604051620000959062000182565b620000a191906200022f565b604051809103906000f080158015620000be573d6000803e3d6000fd5b50600760006101000a81548173ffffffffffffffffffffffffffffffffffffffff021916908373ffffffffffffffffffffffffffffffffffffffff16021790555030816040516200010f9062000190565b6200011c9291906200024c565b604051809103906000f08015801562000139573d6000803e3d6000fd5b50600460006101000a81548173ffffffffffffffffffffffffffffffffffffffff021916908373ffffffffffffffffffffffffffffffffffffffff160217905550505062000331565b61046880620062ec83390190565b611a0e806200675483390190565b600081519050620001af81620002fd565b92915050565b600081519050620001c68162000317565b92915050565b60008060408385031215620001e057600080fd5b6000620001f085828601620001b5565b925050602062000203858286016200019e565b9150509250929050565b620002188162000279565b82525050565b6200022981620002d5565b82525050565b60006020820190506200024660008301846200020d565b92915050565b60006040820190506200026360008301856200020d565b6200027260208301846200021e565b9392505050565b60006200028682620002b5565b9050919050565b60006200029a8262000279565b9050919050565b6000620002ae8262000279565b9050919050565b600073ffffffffffffffffffffffffffffffffffffffff82169050919050565b6000620002e282620002e9565b9050919050565b6000620002f682620002b5565b9050919050565b62000308816200028d565b81146200031457600080fd5b50565b6200032281620002a1565b81146200032e57600080fd5b50565b615fab80620003416000396000f3fe608060405234801561001057600080fd5b50600436106101165760003560e01c80636ea8bc10116100a2578063b1b358d411610071578063b1b358d4146102b5578063bb104e4a146102d1578063c956f143146102ed578063ced066c91461031d578063df78c1dd1461033b57610116565b80636ea8bc101461021b5780637b1e52a5146102395780639324692214610269578063af967b7c1461029957610116565b80633d966fbb116100e95780633d966fbb1461018d578063457c8816146101a95780634f9f6fe6146101c5578063537e078a146101f55780635ef758fb1461021157610116565b80630720facc1461011b5780632037a7aa14610125578063253bd95b146101555780633ae776d214610171575b600080fd5b610123610357565b005b61013f600480360381019061013a919061463f565b6106f3565b60405161014c919061545e565b60405180910390f35b61016f600480360381019061016a919061490f565b6107a7565b005b61018b600480360381019061018691906148bd565b610855565b005b6101a760048036038101906101a2919061494b565b610ab1565b005b6101c360048036038101906101be91906148bd565b610ce8565b005b6101df60048036038101906101da91906148bd565b61120a565b6040516101ec91906156ed565b60405180910390f35b61020f600480360381019061020a9190614668565b6112b7565b005b610219611546565b005b6102236117f3565b6040516102309190615753565b60405180910390f35b610253600480360381019061024e919061463f565b61189a565b6040516102609190615753565b60405180910390f35b610283600480360381019061027e91906148bd565b61194e565b6040516102909190615731565b60405180910390f35b6102b360048036038101906102ae91906148bd565b6119fb565b005b6102cf60048036038101906102ca91906148bd565b611f75565b005b6102eb60048036038101906102e6919061490f565b612113565b005b610307600480360381019061030291906148bd565b61250d565b604051610314919061570f565b60405180910390f35b6103256125ba565b6040516103329190615753565b60405180910390f35b610355600480360381019061035091906148bd565b612661565b005b60003290506000600660009054906101000a900473ffffffffffffffffffffffffffffffffffffffff1673ffffffffffffffffffffffffffffffffffffffff1663dd62ed3e83306040518363ffffffff1660e01b81526004016103bb929190615389565b60206040518083038186803b1580156103d357600080fd5b505afa1580156103e7573d6000803e3d6000fd5b505050506040513d601f19601f8201168201806040525081019061040b91906148e6565b90506104156125ba565b81101561042157600080fd5b600660009054906101000a900473ffffffffffffffffffffffffffffffffffffffff1673ffffffffffffffffffffffffffffffffffffffff166323b872dd83306104696125ba565b6040518463ffffffff1660e01b8152600401610487939291906153b2565b602060405180830381600087803b1580156104a157600080fd5b505af11580156104b5573d6000803e3d6000fd5b505050506040513d601f19601f820116820180604052508101906104d991906147d1565b50600460009054906101000a900473ffffffffffffffffffffffffffffffffffffffff1673ffffffffffffffffffffffffffffffffffffffff1663cb552b46836040518263ffffffff1660e01b8152600401610535919061536e565b602060405180830381600087803b15801561054f57600080fd5b505af1158015610563573d6000803e3d6000fd5b505050506040513d601f19601f8201168201806040525081019061058791906148e6565b507f7a5141d007094ae20a8d0be068a2a9aedf7ec2521bf0e28c4b06d3bb180d0052826040516105b7919061536e565b60405180910390a1600760009054906101000a900473ffffffffffffffffffffffffffffffffffffffff1673ffffffffffffffffffffffffffffffffffffffff16639aeb6b30600154600460009054906101000a900473ffffffffffffffffffffffffffffffffffffffff1673ffffffffffffffffffffffffffffffffffffffff16636528a0206040518163ffffffff1660e01b815260040160206040518083038186803b15801561066857600080fd5b505afa15801561067c573d6000803e3d6000fd5b505050506040513d601f19601f820116820180604052508101906106a091906148e6565b6040518363ffffffff1660e01b81526004016106bd92919061579e565b600060405180830381600087803b1580156106d757600080fd5b505af11580156106eb573d6000803e3d6000fd5b505050505050565b6000600460009054906101000a900473ffffffffffffffffffffffffffffffffffffffff1673ffffffffffffffffffffffffffffffffffffffff16632037a7aa836040518263ffffffff1660e01b8152600401610750919061536e565b60206040518083038186803b15801561076857600080fd5b505afa15801561077c573d6000803e3d6000fd5b505050506040513d601f19601f820116820180604052508101906107a091906147d1565b9050919050565b73__AgreementLib__________________________63512220a560036000858152602001908152602001600020836040518363ffffffff1660e01b81526004016107f2929190615684565b60206040518083038186803b15801561080a57600080fd5b505af415801561081e573d6000803e3d6000fd5b505050506040513d601f19601f8201168201806040525081019061084291906147d1565b156108515761085082612a80565b5b5050565b6001600981111561088f577f4e487b7100000000000000000000000000000000000000000000000000000000600052602160045260246000fd5b6002600083815260200190815260200160002060070160149054906101000a900460ff1660098111156108eb577f4e487b7100000000000000000000000000000000000000000000000000000000600052602160045260246000fd5b146108f557600080fd5b6002600082815260200190815260200160002060020160009054906101000a900473ffffffffffffffffffffffffffffffffffffffff1673ffffffffffffffffffffffffffffffffffffffff163273ffffffffffffffffffffffffffffffffffffffff1614610999576040517f08c379a000000000000000000000000000000000000000000000000000000000815260040161099090615557565b60405180910390fd5b73__AgreementLib__________________________63ca68d576600260008481526020019081526020016000206040518263ffffffff1660e01b81526004016109e291906155b7565b60006040518083038186803b1580156109fa57600080fd5b505af4158015610a0e573d6000803e3d6000fd5b5050505060036002600083815260200190815260200160002060070160146101000a81548160ff02191690836009811115610a72577f4e487b7100000000000000000000000000000000000000000000000000000000600052602160045260246000fd5b02179055507fc24bb3df0a2a676471c2c307e6a7eebdce69850781c8168cfb28955de43c94ce81604051610aa69190615753565b60405180910390a150565b836002600082815260200190815260200160002060010160009054906101000a900473ffffffffffffffffffffffffffffffffffffffff1673ffffffffffffffffffffffffffffffffffffffff163273ffffffffffffffffffffffffffffffffffffffff161480610b8357506002600082815260200190815260200160002060020160009054906101000a900473ffffffffffffffffffffffffffffffffffffffff1673ffffffffffffffffffffffffffffffffffffffff163273ffffffffffffffffffffffffffffffffffffffff16145b610b8c57600080fd5b60076009811115610bc6577f4e487b7100000000000000000000000000000000000000000000000000000000600052602160045260246000fd5b6002600087815260200190815260200160002060070160149054906101000a900460ff166009811115610c22577f4e487b7100000000000000000000000000000000000000000000000000000000600052602160045260246000fd5b14610c62576040517f08c379a0000000000000000000000000000000000000000000000000000000008152600401610c59906154d7565b60405180910390fd5b73__AgreementLib__________________________6378a064ef600360008881526020019081526020016000208686866040518563ffffffff1660e01b8152600401610cb194939291906156ad565b60006040518083038186803b158015610cc957600080fd5b505af4158015610cdd573d6000803e3d6000fd5b505050505050505050565b806002600082815260200190815260200160002060010160009054906101000a900473ffffffffffffffffffffffffffffffffffffffff1673ffffffffffffffffffffffffffffffffffffffff163273ffffffffffffffffffffffffffffffffffffffff161480610dba57506002600082815260200190815260200160002060020160009054906101000a900473ffffffffffffffffffffffffffffffffffffffff1673ffffffffffffffffffffffffffffffffffffffff163273ffffffffffffffffffffffffffffffffffffffff16145b610dc357600080fd5b60016009811115610dfd577f4e487b7100000000000000000000000000000000000000000000000000000000600052602160045260246000fd5b6002600084815260200190815260200160002060070160149054906101000a900460ff166009811115610e59577f4e487b7100000000000000000000000000000000000000000000000000000000600052602160045260246000fd5b1480610ef8575060036009811115610e9a577f4e487b7100000000000000000000000000000000000000000000000000000000600052602160045260246000fd5b6002600084815260200190815260200160002060070160149054906101000a900460ff166009811115610ef6577f4e487b7100000000000000000000000000000000000000000000000000000000600052602160045260246000fd5b145b610f37576040517f08c379a0000000000000000000000000000000000000000000000000000000008152600401610f2e90615597565b60405180910390fd5b60005b60026000848152602001908152602001600020600901548110156111a15760026000848152602001908152602001600020600801600082815260200190815260200160002060030160149054906101000a900460ff161561118e5760006002600085815260200190815260200160002060080160008381526020019081526020016000206040518060a00160405290816000820160009054906101000a900473ffffffffffffffffffffffffffffffffffffffff1673ffffffffffffffffffffffffffffffffffffffff1673ffffffffffffffffffffffffffffffffffffffff168152602001600182015481526020016002820160009054906101000a900473ffffffffffffffffffffffffffffffffffffffff1673ffffffffffffffffffffffffffffffffffffffff1673ffffffffffffffffffffffffffffffffffffffff1681526020016003820160009054906101000a900473ffffffffffffffffffffffffffffffffffffffff1673ffffffffffffffffffffffffffffffffffffffff1673ffffffffffffffffffffffffffffffffffffffff1681526020016003820160149054906101000a900460ff1615151515815250509050806000015173ffffffffffffffffffffffffffffffffffffffff1663a9059cbb826040015183602001516040518363ffffffff1660e01b8152600401611139929190615435565b602060405180830381600087803b15801561115357600080fd5b505af1158015611167573d6000803e3d6000fd5b505050506040513d601f19601f8201168201806040525081019061118b91906147d1565b50505b808061119990615d8c565b915050610f3a565b50600280600084815260200190815260200160002060070160146101000a81548160ff02191690836009811115611201577f4e487b7100000000000000000000000000000000000000000000000000000000600052602160045260246000fd5b02179055505050565b611212613abb565b73__AgreementLib__________________________63f68e9ec2600260008581526020019081526020016000206040518263ffffffff1660e01b815260040161125b91906155b7565b60006040518083038186803b15801561127357600080fd5b505af4158015611287573d6000803e3d6000fd5b505050506040513d6000823e3d601f19601f820116820180604052508101906112b091906147fa565b9050919050565b32600260008054815260200190815260200160002060010160006101000a81548173ffffffffffffffffffffffffffffffffffffffff021916908373ffffffffffffffffffffffffffffffffffffffff1602179055508a600260008054815260200190815260200160002060020160006101000a81548173ffffffffffffffffffffffffffffffffffffffff021916908373ffffffffffffffffffffffffffffffffffffffff160217905550896002600080548152602001908152602001600020600301819055508888600260008054815260200190815260200160002060040191906113a5929190613c06565b506001600260008054815260200190815260200160002060070160146101000a81548160ff02191690836009811115611407577f4e487b7100000000000000000000000000000000000000000000000000000000600052602160045260246000fd5b02179055506114146117f3565b600260008054815260200190815260200160002060050181905550866002600080548152602001908152602001600020600001908051906020019061145a929190613c8c565b5073__AgreementLib__________________________63b6bb9da960026000805481526020019081526020016000208d8989898989896040518963ffffffff1660e01b81526004016114b39897969594939291906155d2565b60006040518083038186803b1580156114cb57600080fd5b505af41580156114df573d6000803e3d6000fd5b505050507f61873e05afc1d4789d1dc3675540b8930dc676e5c2c7910c52b3b246e8d2da09328c6000548a60405161151a94939291906153e9565b60405180910390a160008081548092919061153490615d8c565b91905055505050505050505050505050565b600460009054906101000a900473ffffffffffffffffffffffffffffffffffffffff1673ffffffffffffffffffffffffffffffffffffffff1663f6cd25f0326040518263ffffffff1660e01b81526004016115a1919061536e565b600060405180830381600087803b1580156115bb57600080fd5b505af11580156115cf573d6000803e3d6000fd5b50505050600660009054906101000a900473ffffffffffffffffffffffffffffffffffffffff1673ffffffffffffffffffffffffffffffffffffffff1663a9059cbb3261161a6125ba565b6040518363ffffffff1660e01b8152600401611637929190615435565b602060405180830381600087803b15801561165157600080fd5b505af1158015611665573d6000803e3d6000fd5b505050506040513d601f19601f8201168201806040525081019061168991906147d1565b507f37274106ca07f508b2a328229b7c8abcd051c6fef3bb7f2d29d787a5d1bc4b85326040516116b9919061536e565b60405180910390a1600760009054906101000a900473ffffffffffffffffffffffffffffffffffffffff1673ffffffffffffffffffffffffffffffffffffffff16639aeb6b30600154600460009054906101000a900473ffffffffffffffffffffffffffffffffffffffff1673ffffffffffffffffffffffffffffffffffffffff16636528a0206040518163ffffffff1660e01b815260040160206040518083038186803b15801561176a57600080fd5b505afa15801561177e573d6000803e3d6000fd5b505050506040513d601f19601f820116820180604052508101906117a291906148e6565b6040518363ffffffff1660e01b81526004016117bf92919061579e565b600060405180830381600087803b1580156117d957600080fd5b505af11580156117ed573d6000803e3d6000fd5b50505050565b6000600760009054906101000a900473ffffffffffffffffffffffffffffffffffffffff1673ffffffffffffffffffffffffffffffffffffffff16636ea8bc106040518163ffffffff1660e01b815260040160206040518083038186803b15801561185d57600080fd5b505afa158015611871573d6000803e3d6000fd5b505050506040513d601f19601f8201168201806040525081019061189591906148e6565b905090565b6000600460009054906101000a900473ffffffffffffffffffffffffffffffffffffffff1673ffffffffffffffffffffffffffffffffffffffff16637b1e52a5836040518263ffffffff1660e01b81526004016118f7919061536e565b60206040518083038186803b15801561190f57600080fd5b505afa158015611923573d6000803e3d6000fd5b505050506040513d601f19601f8201168201806040525081019061194791906148e6565b9050919050565b611956613d12565b73__AgreementLib__________________________6389681614600360008581526020019081526020016000206040518263ffffffff1660e01b815260040161199f9190615669565b60006040518083038186803b1580156119b757600080fd5b505af41580156119cb573d6000803e3d6000fd5b505050506040513d6000823e3d601f19601f820116820180604052508101906119f4919061487c565b9050919050565b60036009811115611a35577f4e487b7100000000000000000000000000000000000000000000000000000000600052602160045260246000fd5b6002600083815260200190815260200160002060070160149054906101000a900460ff166009811115611a91577f4e487b7100000000000000000000000000000000000000000000000000000000600052602160045260246000fd5b14611a9b57600080fd5b600060026000838152602001908152602001600020600601546002600084815260200190815260200160002060050154611ad59190615be0565b905060008111611ae457600080fd5b6000600660009054906101000a900473ffffffffffffffffffffffffffffffffffffffff1673ffffffffffffffffffffffffffffffffffffffff1663dd62ed3e32306040518363ffffffff1660e01b8152600401611b43929190615389565b60206040518083038186803b158015611b5b57600080fd5b505afa158015611b6f573d6000803e3d6000fd5b505050506040513d601f19601f82011682018060405250810190611b9391906148e6565b905081811015611bd8576040517f08c379a0000000000000000000000000000000000000000000000000000000008152600401611bcf906154b7565b60405180910390fd5b600660009054906101000a900473ffffffffffffffffffffffffffffffffffffffff1673ffffffffffffffffffffffffffffffffffffffff166323b872dd3230856040518463ffffffff1660e01b8152600401611c37939291906153b2565b602060405180830381600087803b158015611c5157600080fd5b505af1158015611c65573d6000803e3d6000fd5b505050506040513d601f19601f82011682018060405250810190611c8991906147d1565b15611dfe5781600260008581526020019081526020016000206006016000828254611cb49190615aff565b92505081905550326002600085815260200190815260200160002060070160006101000a81548173ffffffffffffffffffffffffffffffffffffffff021916908373ffffffffffffffffffffffffffffffffffffffff160217905550600260008481526020019081526020016000206005015460026000858152602001908152602001600020600601541415611df95760046002600085815260200190815260200160002060070160146101000a81548160ff02191690836009811115611da4577f4e487b7100000000000000000000000000000000000000000000000000000000600052602160045260246000fd5b021790555060016000815480929190611dbc90615d8c565b91905055507f462e02ab65018b394ce0f5821e9de16cf33d6dd60b11b37173b8d0020863988783604051611df09190615753565b60405180910390a15b611e40565b6000611e3f576040517f08c379a0000000000000000000000000000000000000000000000000000000008152600401611e36906154f7565b60405180910390fd5b5b600760009054906101000a900473ffffffffffffffffffffffffffffffffffffffff1673ffffffffffffffffffffffffffffffffffffffff16639aeb6b30600154600460009054906101000a900473ffffffffffffffffffffffffffffffffffffffff1673ffffffffffffffffffffffffffffffffffffffff16636528a0206040518163ffffffff1660e01b815260040160206040518083038186803b158015611ee957600080fd5b505afa158015611efd573d6000803e3d6000fd5b505050506040513d601f19601f82011682018060405250810190611f2191906148e6565b6040518363ffffffff1660e01b8152600401611f3e92919061579e565b600060405180830381600087803b158015611f5857600080fd5b505af1158015611f6c573d6000803e3d6000fd5b50505050505050565b6003600082815260200190815260200160002060000160009054906101000a900460ff16611fd8576040517f08c379a0000000000000000000000000000000000000000000000000000000008152600401611fcf90615537565b60405180910390fd5b4260036000838152602001908152602001600020600101541115612031576040517f08c379a000000000000000000000000000000000000000000000000000000000815260040161202890615517565b60405180910390fd5b60098081111561206a577f4e487b7100000000000000000000000000000000000000000000000000000000600052602160045260246000fd5b6002600083815260200190815260200160002060070160149054906101000a900460ff1660098111156120c6577f4e487b7100000000000000000000000000000000000000000000000000000000600052602160045260246000fd5b1415612107576040517f08c379a00000000000000000000000000000000000000000000000000000000081526004016120fe90615577565b60405180910390fd5b61211081612a80565b50565b73__AgreementLib__________________________636c2c3e8360026000858152602001908152602001600020836040518363ffffffff1660e01b815260040161215e929190615640565b60006040518083038186803b15801561217657600080fd5b505af415801561218a573d6000803e3d6000fd5b50505050600160028111156121c8577f4e487b7100000000000000000000000000000000000000000000000000000000600052602160045260246000fd5b816002811115612201577f4e487b7100000000000000000000000000000000000000000000000000000000600052602160045260246000fd5b141561221557612210826131df565b612509565b60028081111561224e577f4e487b7100000000000000000000000000000000000000000000000000000000600052602160045260246000fd5b6002600084815260200190815260200160002060070160159054906101000a900460ff1660028111156122aa577f4e487b7100000000000000000000000000000000000000000000000000000000600052602160045260246000fd5b14801561234957506002808111156122eb577f4e487b7100000000000000000000000000000000000000000000000000000000600052602160045260246000fd5b6002600084815260200190815260200160002060070160169054906101000a900460ff166002811115612347577f4e487b7100000000000000000000000000000000000000000000000000000000600052602160045260246000fd5b145b1561250857600660009054906101000a900473ffffffffffffffffffffffffffffffffffffffff1673ffffffffffffffffffffffffffffffffffffffff1663a9059cbb6002600085815260200190815260200160002060070160009054906101000a900473ffffffffffffffffffffffffffffffffffffffff1660026000868152602001908152602001600020600601546040518363ffffffff1660e01b81526004016123f7929190615435565b602060405180830381600087803b15801561241157600080fd5b505af1158015612425573d6000803e3d6000fd5b505050506040513d601f19601f8201168201806040525081019061244991906147d1565b506124538261365b565b60096002600084815260200190815260200160002060070160146101000a81548160ff021916908360098111156124b3577f4e487b7100000000000000000000000000000000000000000000000000000000600052602160045260246000fd5b0217905550600160008154809291906124cb90615d30565b91905055507f751f06a8f9719c27072d40195be3f4fbc8395b9c41f1024c1db6e233f7252500826040516124ff9190615753565b60405180910390a15b5b5050565b612515613d3c565b73__AgreementLib__________________________6375ad9f36600360008581526020019081526020016000206040518263ffffffff1660e01b815260040161255e9190615669565b60006040518083038186803b15801561257657600080fd5b505af415801561258a573d6000803e3d6000fd5b505050506040513d6000823e3d601f19601f820116820180604052508101906125b3919061483b565b9050919050565b6000600760009054906101000a900473ffffffffffffffffffffffffffffffffffffffff1673ffffffffffffffffffffffffffffffffffffffff1663ced066c96040518163ffffffff1660e01b815260040160206040518083038186803b15801561262457600080fd5b505afa158015612638573d6000803e3d6000fd5b505050506040513d601f19601f8201168201806040525081019061265c91906148e6565b905090565b6001600981111561269b577f4e487b7100000000000000000000000000000000000000000000000000000000600052602160045260246000fd5b6002600083815260200190815260200160002060070160149054906101000a900460ff1660098111156126f7577f4e487b7100000000000000000000000000000000000000000000000000000000600052602160045260246000fd5b14612737576040517f08c379a000000000000000000000000000000000000000000000000000000000815260040161272e90615597565b60405180910390fd5b60005b6002600083815260200190815260200160002060090154811015612a7c573273ffffffffffffffffffffffffffffffffffffffff1660026000848152602001908152602001600020600801600083815260200190815260200160002060020160009054906101000a900473ffffffffffffffffffffffffffffffffffffffff1673ffffffffffffffffffffffffffffffffffffffff16146127da57612a69565b600060026000848152602001908152602001600020600801600083815260200190815260200160002060000160009054906101000a900473ffffffffffffffffffffffffffffffffffffffff1673ffffffffffffffffffffffffffffffffffffffff1663dd62ed3e32306040518363ffffffff1660e01b8152600401612861929190615389565b60206040518083038186803b15801561287957600080fd5b505afa15801561288d573d6000803e3d6000fd5b505050506040513d601f19601f820116820180604052508101906128b191906148e6565b905060026000848152602001908152602001600020600801600083815260200190815260200160002060010154811015612920576040517f08c379a0000000000000000000000000000000000000000000000000000000008152600401612917906154b7565b60405180910390fd5b60026000848152602001908152602001600020600801600083815260200190815260200160002060000160009054906101000a900473ffffffffffffffffffffffffffffffffffffffff1673ffffffffffffffffffffffffffffffffffffffff166323b872dd3230600260008881526020019081526020016000206008016000878152602001908152602001600020600101546040518463ffffffff1660e01b81526004016129d1939291906153b2565b602060405180830381600087803b1580156129eb57600080fd5b505af11580156129ff573d6000803e3d6000fd5b505050506040513d601f19601f82011682018060405250810190612a2391906147d1565b50600160026000858152602001908152602001600020600801600084815260200190815260200160002060030160146101000a81548160ff021916908315150217905550505b8080612a7490615d8c565b91505061273a565b5050565b60008060005b6003600085815260200190815260200160002060040154811015612c0557600060036000868152602001908152602001600020600301600083815260200190815260200160002060009054906101000a900460ff16905060016002811115612b17577f4e487b7100000000000000000000000000000000000000000000000000000000600052602160045260246000fd5b816002811115612b50577f4e487b7100000000000000000000000000000000000000000000000000000000600052602160045260246000fd5b1415612b69578280612b6190615d8c565b935050612bf1565b600280811115612ba2577f4e487b7100000000000000000000000000000000000000000000000000000000600052602160045260246000fd5b816002811115612bdb577f4e487b7100000000000000000000000000000000000000000000000000000000600052602160045260246000fd5b1415612bf0578380612bec90615d8c565b9450505b5b508080612bfd90615d8c565b915050612a86565b50600080600084841115612c6f5760019250612c208661388b565b836002600088815260200190815260200160002060060154612c429190615b55565b91508484612c509190615aff565b856103e8612c5e9190615b86565b612c689190615b55565b9050612cd1565b60029250612c7c8661365b565b6000851115612caa57846002600088815260200190815260200160002060060154612ca79190615b55565b91505b8484612cb69190615aff565b846103e8612cc49190615b86565b612cce9190615b55565b90505b60005b6003600088815260200190815260200160002060040154811015612ea957836002811115612d2b577f4e487b7100000000000000000000000000000000000000000000000000000000600052602160045260246000fd5b60036000898152602001908152602001600020600301600083815260200190815260200160002060009054906101000a900460ff166002811115612d98577f4e487b7100000000000000000000000000000000000000000000000000000000600052602160045260246000fd5b1415612e9657600660009054906101000a900473ffffffffffffffffffffffffffffffffffffffff1673ffffffffffffffffffffffffffffffffffffffff1663a9059cbb600360008a8152602001908152602001600020600201600084815260200190815260200160002060009054906101000a900473ffffffffffffffffffffffffffffffffffffffff16856040518363ffffffff1660e01b8152600401612e42929190615435565b602060405180830381600087803b158015612e5c57600080fd5b505af1158015612e70573d6000803e3d6000fd5b505050506040513d601f19601f82011682018060405250810190612e9491906147d1565b505b8080612ea190615d8c565b915050612cd4565b5060008114158015612ebd575061012c8111155b15613123576000600280811115612efd577f4e487b7100000000000000000000000000000000000000000000000000000000600052602160045260246000fd5b846002811115612f36577f4e487b7100000000000000000000000000000000000000000000000000000000600052602160045260246000fd5b1415612f455760019050612f4a565b600290505b60005b600360008981526020019081526020016000206004015481101561312057816002811115612fa4577f4e487b7100000000000000000000000000000000000000000000000000000000600052602160045260246000fd5b600360008a8152602001908152602001600020600301600083815260200190815260200160002060009054906101000a900460ff166002811115613011577f4e487b7100000000000000000000000000000000000000000000000000000000600052602160045260246000fd5b141561310d57600460009054906101000a900473ffffffffffffffffffffffffffffffffffffffff1673ffffffffffffffffffffffffffffffffffffffff16632bfd740f600360008b8152602001908152602001600020600201600084815260200190815260200160002060009054906101000a900473ffffffffffffffffffffffffffffffffffffffff166040518263ffffffff1660e01b81526004016130b9919061536e565b602060405180830381600087803b1580156130d357600080fd5b505af11580156130e7573d6000803e3d6000fd5b505050506040513d601f19601f8201168201806040525081019061310b91906147d1565b505b808061311890615d8c565b915050612f4d565b50505b60096002600088815260200190815260200160002060070160146101000a81548160ff02191690836009811115613183577f4e487b7100000000000000000000000000000000000000000000000000000000600052602160045260246000fd5b02179055506001600081548092919061319b90615d30565b91905055507f751f06a8f9719c27072d40195be3f4fbc8395b9c41f1024c1db6e233f7252500866040516131cf9190615753565b60405180910390a1505050505050565b6000600267ffffffffffffffff811115613222577f4e487b7100000000000000000000000000000000000000000000000000000000600052604160045260246000fd5b6040519080825280602002602001820160405280156132505781602001602082028036833780820191505090505b5090506002600083815260200190815260200160002060010160009054906101000a900473ffffffffffffffffffffffffffffffffffffffff16816000815181106132c4577f4e487b7100000000000000000000000000000000000000000000000000000000600052603260045260246000fd5b602002602001019073ffffffffffffffffffffffffffffffffffffffff16908173ffffffffffffffffffffffffffffffffffffffff16815250506002600083815260200190815260200160002060020160009054906101000a900473ffffffffffffffffffffffffffffffffffffffff168160018151811061336f577f4e487b7100000000000000000000000000000000000000000000000000000000600052603260045260246000fd5b602002602001019073ffffffffffffffffffffffffffffffffffffffff16908173ffffffffffffffffffffffffffffffffffffffff16815250506000600460009054906101000a900473ffffffffffffffffffffffffffffffffffffffff1673ffffffffffffffffffffffffffffffffffffffff166308a1871160058054856040518463ffffffff1660e01b815260040161340c93929190615479565b600060405180830381600087803b15801561342657600080fd5b505af115801561343a573d6000803e3d6000fd5b505050506040513d6000823e3d601f19601f820116820180604052508101906134639190614790565b905060aa600560008282546134789190615aff565b9250508190555060005b8151811015613544578181815181106134c4577f4e487b7100000000000000000000000000000000000000000000000000000000600052603260045260246000fd5b602002602001015160036000868152602001908152602001600020600201600083815260200190815260200160002060006101000a81548173ffffffffffffffffffffffffffffffffffffffff021916908373ffffffffffffffffffffffffffffffffffffffff160217905550808061353c90615d8c565b915050613482565b5061ea60426135539190615aff565b60036000858152602001908152602001600020600101819055508051600360008581526020019081526020016000206004018190555060016003600085815260200190815260200160002060000160006101000a81548160ff02191690831515021790555060076002600085815260200190815260200160002060070160146101000a81548160ff02191690836009811115613618577f4e487b7100000000000000000000000000000000000000000000000000000000600052602160045260246000fd5b02179055507f365d6a98f599d6501057eade6a803f90e4a8b8a86b6e37f5cc0fef1de6b230fa838260405161364e92919061576e565b60405180910390a1505050565b60005b60026000838152602001908152602001600020600901548110156138875760006002600084815260200190815260200160002060080160008381526020019081526020016000206040518060a00160405290816000820160009054906101000a900473ffffffffffffffffffffffffffffffffffffffff1673ffffffffffffffffffffffffffffffffffffffff1673ffffffffffffffffffffffffffffffffffffffff168152602001600182015481526020016002820160009054906101000a900473ffffffffffffffffffffffffffffffffffffffff1673ffffffffffffffffffffffffffffffffffffffff1673ffffffffffffffffffffffffffffffffffffffff1681526020016003820160009054906101000a900473ffffffffffffffffffffffffffffffffffffffff1673ffffffffffffffffffffffffffffffffffffffff1673ffffffffffffffffffffffffffffffffffffffff1681526020016003820160149054906101000a900460ff1615151515815250509050806000015173ffffffffffffffffffffffffffffffffffffffff1663a9059cbb826060015183602001516040518363ffffffff1660e01b8152600401613820929190615435565b602060405180830381600087803b15801561383a57600080fd5b505af115801561384e573d6000803e3d6000fd5b505050506040513d601f19601f8201168201806040525081019061387291906147d1565b5050808061387f90615d8c565b91505061365e565b5050565b60005b6002600083815260200190815260200160002060090154811015613ab75760006002600084815260200190815260200160002060080160008381526020019081526020016000206040518060a00160405290816000820160009054906101000a900473ffffffffffffffffffffffffffffffffffffffff1673ffffffffffffffffffffffffffffffffffffffff1673ffffffffffffffffffffffffffffffffffffffff168152602001600182015481526020016002820160009054906101000a900473ffffffffffffffffffffffffffffffffffffffff1673ffffffffffffffffffffffffffffffffffffffff1673ffffffffffffffffffffffffffffffffffffffff1681526020016003820160009054906101000a900473ffffffffffffffffffffffffffffffffffffffff1673ffffffffffffffffffffffffffffffffffffffff1673ffffffffffffffffffffffffffffffffffffffff1681526020016003820160149054906101000a900460ff1615151515815250509050806000015173ffffffffffffffffffffffffffffffffffffffff1663a9059cbb826040015183602001516040518363ffffffff1660e01b8152600401613a50929190615435565b602060405180830381600087803b158015613a6a57600080fd5b505af1158015613a7e573d6000803e3d6000fd5b505050506040513d601f19601f82011682018060405250810190613aa291906147d1565b50508080613aaf90615d8c565b91505061388e565b5050565b60405180610180016040528060608152602001600073ffffffffffffffffffffffffffffffffffffffff168152602001600073ffffffffffffffffffffffffffffffffffffffff16815260200160008152602001606081526020016000815260200160008152602001600073ffffffffffffffffffffffffffffffffffffffff16815260200160006009811115613b7b577f4e487b7100000000000000000000000000000000000000000000000000000000600052602160045260246000fd5b815260200160006002811115613bba577f4e487b7100000000000000000000000000000000000000000000000000000000600052602160045260246000fd5b815260200160006002811115613bf9577f4e487b7100000000000000000000000000000000000000000000000000000000600052602160045260246000fd5b8152602001606081525090565b828054613c1290615d5a565b90600052602060002090601f016020900481019282613c345760008555613c7b565b82601f10613c4d57803560ff1916838001178555613c7b565b82800160010185558215613c7b579182015b82811115613c7a578235825591602001919060010190613c5f565b5b509050613c889190613d56565b5090565b828054613c9890615d5a565b90600052602060002090601f016020900481019282613cba5760008555613d01565b82601f10613cd357805160ff1916838001178555613d01565b82800160010185558215613d01579182015b82811115613d00578251825591602001919060010190613ce5565b5b509050613d0e9190613d56565b5090565b60405180608001604052806000151581526020016000815260200160608152602001606081525090565b604051806040016040528060608152602001606081525090565b5b80821115613d6f576000816000905550600101613d57565b5090565b6000613d86613d81846157f8565b6157c7565b90508083825260208201905082856020860282011115613da557600080fd5b60005b85811015613dd55781613dbb8882614011565b845260208401935060208301925050600181019050613da8565b5050509392505050565b6000613df2613ded84615824565b6157c7565b90508083825260208201905082856020860282011115613e1157600080fd5b60005b85811015613e415781613e278882614254565b845260208401935060208301925050600181019050613e14565b5050509392505050565b6000613e5e613e5984615850565b6157c7565b9050808382526020820190508260005b85811015613e9e5781518501613e8488826142dd565b845260208401935060208301925050600181019050613e6e565b5050509392505050565b6000613ebb613eb68461587c565b6157c7565b905080838252602082019050828560a0860282011115613eda57600080fd5b60005b85811015613f0a5781613ef08882614307565b845260208401935060a08301925050600181019050613edd565b5050509392505050565b6000613f27613f22846158a8565b6157c7565b90508083825260208201905082856020860282011115613f4657600080fd5b60005b85811015613f765781613f5c888261462a565b845260208401935060208301925050600181019050613f49565b5050509392505050565b6000613f93613f8e846158d4565b6157c7565b905082815260208101848484011115613fab57600080fd5b613fb6848285615cee565b509392505050565b6000613fd1613fcc846158d4565b6157c7565b905082815260208101848484011115613fe957600080fd5b613ff4848285615cfd565b509392505050565b60008135905061400b81615ef9565b92915050565b60008151905061402081615ef9565b92915050565b600082601f83011261403757600080fd5b8151614047848260208601613d73565b91505092915050565b60008083601f84011261406257600080fd5b8235905067ffffffffffffffff81111561407b57600080fd5b60208301915083602082028301111561409357600080fd5b9250929050565b60008083601f8401126140ac57600080fd5b8235905067ffffffffffffffff8111156140c557600080fd5b6020830191508360208202830111156140dd57600080fd5b9250929050565b600082601f8301126140f557600080fd5b8151614105848260208601613ddf565b91505092915050565b600082601f83011261411f57600080fd5b815161412f848260208601613e4b565b91505092915050565b600082601f83011261414957600080fd5b8151614159848260208601613ea8565b91505092915050565b60008083601f84011261417457600080fd5b8235905067ffffffffffffffff81111561418d57600080fd5b6020830191508360208202830111156141a557600080fd5b9250929050565b600082601f8301126141bd57600080fd5b81516141cd848260208601613f14565b91505092915050565b6000813590506141e581615f10565b92915050565b6000815190506141fa81615f10565b92915050565b60008135905061420f81615f27565b92915050565b60008151905061422481615f27565b92915050565b60008151905061423981615f3e565b92915050565b60008135905061424e81615f4e565b92915050565b60008151905061426381615f4e565b92915050565b60008083601f84011261427b57600080fd5b8235905067ffffffffffffffff81111561429457600080fd5b6020830191508360018202830111156142ac57600080fd5b9250929050565b600082601f8301126142c457600080fd5b81356142d4848260208601613f80565b91505092915050565b600082601f8301126142ee57600080fd5b81516142fe848260208601613fbe565b91505092915050565b600060a0828403121561431957600080fd5b61432360a06157c7565b9050600061433384828501614215565b60008301525060206143478482850161462a565b602083015250604061435b84828501614011565b604083015250606061436f84828501614011565b6060830152506080614383848285016141eb565b60808301525092915050565b600061018082840312156143a257600080fd5b6143ad6101806157c7565b9050600082015167ffffffffffffffff8111156143c957600080fd5b6143d5848285016142dd565b60008301525060206143e984828501614011565b60208301525060406143fd84828501614011565b60408301525060606144118482850161462a565b606083015250608082015167ffffffffffffffff81111561443157600080fd5b61443d848285016142dd565b60808301525060a06144518482850161462a565b60a08301525060c06144658482850161462a565b60c08301525060e061447984828501614011565b60e08301525061010061448e8482850161422a565b610100830152506101206144a484828501614254565b610120830152506101406144ba84828501614254565b6101408301525061016082015167ffffffffffffffff8111156144dc57600080fd5b6144e884828501614138565b6101608301525092915050565b60006040828403121561450757600080fd5b61451160406157c7565b9050600082015167ffffffffffffffff81111561452d57600080fd5b6145398482850161410e565b600083015250602082015167ffffffffffffffff81111561455957600080fd5b614565848285016141ac565b60208301525092915050565b60006080828403121561458357600080fd5b61458d60806157c7565b9050600061459d848285016141eb565b60008301525060206145b18482850161462a565b602083015250604082015167ffffffffffffffff8111156145d157600080fd5b6145dd84828501614026565b604083015250606082015167ffffffffffffffff8111156145fd57600080fd5b614609848285016140e4565b60608301525092915050565b60008135905061462481615f5e565b92915050565b60008151905061463981615f5e565b92915050565b60006020828403121561465157600080fd5b600061465f84828501613ffc565b91505092915050565b600080600080600080600080600080600060e08c8e03121561468957600080fd5b60006146978e828f01613ffc565b9b505060206146a88e828f01614615565b9a505060408c013567ffffffffffffffff8111156146c557600080fd5b6146d18e828f01614269565b995099505060608c013567ffffffffffffffff8111156146f057600080fd5b6146fc8e828f016142b3565b97505060808c013567ffffffffffffffff81111561471957600080fd5b6147258e828f0161409a565b965096505060a08c013567ffffffffffffffff81111561474457600080fd5b6147508e828f01614162565b945094505060c08c013567ffffffffffffffff81111561476f57600080fd5b61477b8e828f01614050565b92509250509295989b509295989b9093969950565b6000602082840312156147a257600080fd5b600082015167ffffffffffffffff8111156147bc57600080fd5b6147c884828501614026565b91505092915050565b6000602082840312156147e357600080fd5b60006147f1848285016141eb565b91505092915050565b60006020828403121561480c57600080fd5b600082015167ffffffffffffffff81111561482657600080fd5b6148328482850161438f565b91505092915050565b60006020828403121561484d57600080fd5b600082015167ffffffffffffffff81111561486757600080fd5b614873848285016144f5565b91505092915050565b60006020828403121561488e57600080fd5b600082015167ffffffffffffffff8111156148a857600080fd5b6148b484828501614571565b91505092915050565b6000602082840312156148cf57600080fd5b60006148dd84828501614615565b91505092915050565b6000602082840312156148f857600080fd5b60006149068482850161462a565b91505092915050565b6000806040838503121561492257600080fd5b600061493085828601614615565b92505060206149418582860161423f565b9150509250929050565b6000806000806060858703121561496157600080fd5b600061496f87828801614615565b945050602085013567ffffffffffffffff81111561498c57600080fd5b61499887828801614269565b935093505060406149ab87828801614615565b91505092959194509250565b60006149c38383614a5b565b60208301905092915050565b60006149db8383614e03565b60208301905092915050565b60006149f38383614e21565b60208301905092915050565b6000614a0b8383614e3f565b60208301905092915050565b6000614a238383614e99565b905092915050565b6000614a378383615119565b60a08301905092915050565b6000614a4f8383615341565b60208301905092915050565b614a6481615c14565b82525050565b614a7381615c14565b82525050565b614a8281615c14565b82525050565b6000614a9382615968565b614a9d8185615a05565b9350614aa883615904565b8060005b83811015614ad9578151614ac088826149b7565b9750614acb836159aa565b925050600181019050614aac565b5085935050505092915050565b6000614af182615968565b614afb8185615a16565b9350614b0683615904565b8060005b83811015614b37578151614b1e88826149b7565b9750614b29836159aa565b925050600181019050614b0a565b5085935050505092915050565b6000614b508385615a27565b9350614b5b82615914565b8060005b85811015614b9457614b718284615ad1565b614b7b88826149cf565b9750614b86836159b7565b925050600181019050614b5f565b5085925050509392505050565b6000614bad8385615a38565b9350614bb88261591e565b8060005b85811015614bf157614bce8284615ae8565b614bd888826149e7565b9750614be3836159c4565b925050600181019050614bbc565b5085925050509392505050565b6000614c0982615973565b614c138185615a8d565b9350614c1e83615928565b8060005b83811015614c4f578151614c3688826149ff565b9750614c41836159d1565b925050600181019050614c22565b5085935050505092915050565b6000614c678261597e565b614c718185615a49565b935083602082028501614c8385615938565b8060005b85811015614cbf5784840389528151614ca08582614a17565b9450614cab836159de565b925060208a01995050600181019050614c87565b50829750879550505050505092915050565b6000614cdc82615989565b614ce68185615a5a565b9350614cf183615948565b8060005b83811015614d22578151614d098882614a2b565b9750614d14836159eb565b925050600181019050614cf5565b5085935050505092915050565b6000614d3b8385615a7c565b93507f07ffffffffffffffffffffffffffffffffffffffffffffffffffffffffffffff831115614d6a57600080fd5b602083029250614d7b838584615cee565b82840190509392505050565b6000614d9282615994565b614d9c8185615a6b565b9350614da783615958565b8060005b83811015614dd8578151614dbf8882614a43565b9750614dca836159f8565b925050600181019050614dab565b5085935050505092915050565b614dee81615c26565b82525050565b614dfd81615c26565b82525050565b614e0c81615c26565b82525050565b614e1b81615c94565b82525050565b614e2a81615c94565b82525050565b614e3981615cb8565b82525050565b614e4881615cca565b82525050565b614e5781615cca565b82525050565b614e6681615cdc565b82525050565b6000614e788385615ac0565b9350614e85838584615cee565b614e8e83615ec0565b840190509392505050565b6000614ea48261599f565b614eae8185615a9e565b9350614ebe818560208601615cfd565b614ec781615ec0565b840191505092915050565b6000614edd8261599f565b614ee78185615aaf565b9350614ef7818560208601615cfd565b614f0081615ec0565b840191505092915050565b6000614f18600283615aaf565b91507f45350000000000000000000000000000000000000000000000000000000000006000830152602082019050919050565b6000614f58600283615aaf565b91507f45360000000000000000000000000000000000000000000000000000000000006000830152602082019050919050565b6000614f98600383615aaf565b91507f45313700000000000000000000000000000000000000000000000000000000006000830152602082019050919050565b6000614fd8600383615aaf565b91507f45313400000000000000000000000000000000000000000000000000000000006000830152602082019050919050565b6000615018600383615aaf565b91507f45313100000000000000000000000000000000000000000000000000000000006000830152602082019050919050565b6000615058600383615aaf565b91507f45313600000000000000000000000000000000000000000000000000000000006000830152602082019050919050565b6000615098600383615aaf565b91507f45313500000000000000000000000000000000000000000000000000000000006000830152602082019050919050565b60006150d8600283615aaf565b91507f45340000000000000000000000000000000000000000000000000000000000006000830152602082019050919050565b8082525050565b8082525050565b60a08201600082015161512f6000850182614e12565b5060208201516151426020850182615341565b5060408201516151556040850182614a5b565b5060608201516151686060850182614a5b565b50608082015161517b6080850182614de5565b50505050565b600061018083016000830151848203600086015261519f8282614e99565b91505060208301516151b46020860182614a5b565b5060408301516151c76040860182614a5b565b5060608301516151da6060860182615341565b50608083015184820360808601526151f28282614e99565b91505060a083015161520760a0860182615341565b5060c083015161521a60c0860182615341565b5060e083015161522d60e0860182614a5b565b50610100830151615242610100860182614e30565b50610120830151615257610120860182614e3f565b5061014083015161526c610140860182614e3f565b506101608301518482036101608601526152868282614cd1565b9150508091505092915050565b600060408301600083015184820360008601526152b08282614c5c565b915050602083015184820360208601526152ca8282614d87565b9150508091505092915050565b60006080830160008301516152ef6000860182614de5565b5060208301516153026020860182615341565b506040830151848203604086015261531a8282614a88565b915050606083015184820360608601526153348282614bfe565b9150508091505092915050565b61534a81615c8a565b82525050565b61535981615c8a565b82525050565b61536881615c8a565b82525050565b60006020820190506153836000830184614a6a565b92915050565b600060408201905061539e6000830185614a6a565b6153ab6020830184614a6a565b9392505050565b60006060820190506153c76000830186614a6a565b6153d46020830185614a6a565b6153e16040830184615350565b949350505050565b60006080820190506153fe6000830187614a6a565b61540b6020830186614a6a565b6154186040830185615350565b818103606083015261542a8184614ed2565b905095945050505050565b600060408201905061544a6000830185614a6a565b6154576020830184615350565b9392505050565b60006020820190506154736000830184614df4565b92915050565b600060608201905061548e6000830186614e5d565b61549b6020830185615350565b81810360408301526154ad8184614ae6565b9050949350505050565b600060208201905081810360008301526154d081614f0b565b9050919050565b600060208201905081810360008301526154f081614f4b565b9050919050565b6000602082019050818103600083015261551081614f8b565b9050919050565b6000602082019050818103600083015261553081614fcb565b9050919050565b600060208201905081810360008301526155508161500b565b9050919050565b600060208201905081810360008301526155708161504b565b9050919050565b600060208201905081810360008301526155908161508b565b9050919050565b600060208201905081810360008301526155b0816150cb565b9050919050565b60006020820190506155cc600083018461510b565b92915050565b600060a0820190506155e7600083018b61510b565b6155f4602083018a614a79565b818103604083015261560781888a614ba1565b9050818103606083015261561c818688614d2f565b90508181036080830152615631818486614b44565b90509998505050505050505050565b6000604082019050615655600083018561510b565b6156626020830184614e4e565b9392505050565b600060208201905061567e6000830184615112565b92915050565b60006040820190506156996000830185615112565b6156a66020830184614e4e565b9392505050565b60006060820190506156c26000830187615112565b81810360208301526156d5818587614e6c565b90506156e4604083018461535f565b95945050505050565b600060208201905081810360008301526157078184615181565b905092915050565b600060208201905081810360008301526157298184615293565b905092915050565b6000602082019050818103600083015261574b81846152d7565b905092915050565b60006020820190506157686000830184615350565b92915050565b60006040820190506157836000830185615350565b81810360208301526157958184614ae6565b90509392505050565b60006040820190506157b36000830185615350565b6157c06020830184615350565b9392505050565b6000604051905081810181811067ffffffffffffffff821117156157ee576157ed615e91565b5b8060405250919050565b600067ffffffffffffffff82111561581357615812615e91565b5b602082029050602081019050919050565b600067ffffffffffffffff82111561583f5761583e615e91565b5b602082029050602081019050919050565b600067ffffffffffffffff82111561586b5761586a615e91565b5b602082029050602081019050919050565b600067ffffffffffffffff82111561589757615896615e91565b5b602082029050602081019050919050565b600067ffffffffffffffff8211156158c3576158c2615e91565b5b602082029050602081019050919050565b600067ffffffffffffffff8211156158ef576158ee615e91565b5b601f19601f8301169050602081019050919050565b6000819050602082019050919050565b6000819050919050565b6000819050919050565b6000819050602082019050919050565b6000819050602082019050919050565b6000819050602082019050919050565b6000819050602082019050919050565b600081519050919050565b600081519050919050565b600081519050919050565b600081519050919050565b600081519050919050565b600081519050919050565b6000602082019050919050565b6000602082019050919050565b6000602082019050919050565b6000602082019050919050565b6000602082019050919050565b6000602082019050919050565b6000602082019050919050565b600082825260208201905092915050565b600082825260208201905092915050565b600082825260208201905092915050565b600082825260208201905092915050565b600082825260208201905092915050565b600082825260208201905092915050565b600082825260208201905092915050565b600082825260208201905092915050565b600082825260208201905092915050565b600082825260208201905092915050565b600082825260208201905092915050565b600082825260208201905092915050565b6000615ae060208401846141d6565b905092915050565b6000615af76020840184614200565b905092915050565b6000615b0a82615c8a565b9150615b1583615c8a565b9250827fffffffffffffffffffffffffffffffffffffffffffffffffffffffffffffffff03821115615b4a57615b49615dd5565b5b828201905092915050565b6000615b6082615c8a565b9150615b6b83615c8a565b925082615b7b57615b7a615e04565b5b828204905092915050565b6000615b9182615c8a565b9150615b9c83615c8a565b9250817fffffffffffffffffffffffffffffffffffffffffffffffffffffffffffffffff0483118215151615615bd557615bd4615dd5565b5b828202905092915050565b6000615beb82615c8a565b9150615bf683615c8a565b925082821015615c0957615c08615dd5565b5b828203905092915050565b6000615c1f82615c6a565b9050919050565b60008115159050919050565b6000615c3d82615c14565b9050919050565b6000819050615c5282615ed1565b919050565b6000819050615c6582615ee5565b919050565b600073ffffffffffffffffffffffffffffffffffffffff82169050919050565b6000819050919050565b6000615c9f82615ca6565b9050919050565b6000615cb182615c6a565b9050919050565b6000615cc382615c44565b9050919050565b6000615cd582615c57565b9050919050565b6000615ce782615c8a565b9050919050565b82818337600083830152505050565b60005b83811015615d1b578082015181840152602081019050615d00565b83811115615d2a576000848401525b50505050565b6000615d3b82615c8a565b91506000821415615d4f57615d4e615dd5565b5b600182039050919050565b60006002820490506001821680615d7257607f821691505b60208210811415615d8657615d85615e62565b5b50919050565b6000615d9782615c8a565b91507fffffffffffffffffffffffffffffffffffffffffffffffffffffffffffffffff821415615dca57615dc9615dd5565b5b600182019050919050565b7f4e487b7100000000000000000000000000000000000000000000000000000000600052601160045260246000fd5b7f4e487b7100000000000000000000000000000000000000000000000000000000600052601260045260246000fd5b7f4e487b7100000000000000000000000000000000000000000000000000000000600052602160045260246000fd5b7f4e487b7100000000000000000000000000000000000000000000000000000000600052602260045260246000fd5b7f4e487b7100000000000000000000000000000000000000000000000000000000600052604160045260246000fd5b6000601f19601f8301169050919050565b600a8110615ee257615ee1615e33565b5b50565b60038110615ef657615ef5615e33565b5b50565b615f0281615c14565b8114615f0d57600080fd5b50565b615f1981615c26565b8114615f2457600080fd5b50565b615f3081615c32565b8114615f3b57600080fd5b50565b600a8110615f4b57600080fd5b50565b60038110615f5b57600080fd5b50565b615f6781615c8a565b8114615f7257600080fd5b5056fea26469706673582212204f9a5a122035c56b98915ed705bae1665b9a6a5a48f3c4b168b148e52a66e93e64736f6c634300080000336080604052612710600155633b9aca0060025534801561001e57600080fd5b506040516104683803806104688339818101604052810190610040919061009b565b806000806101000a81548173ffffffffffffffffffffffffffffffffffffffff021916908373ffffffffffffffffffffffffffffffffffffffff1602179055505061010d565b600081519050610095816100f6565b92915050565b6000602082840312156100ad57600080fd5b60006100bb84828501610086565b91505092915050565b60006100cf826100d6565b9050919050565b600073ffffffffffffffffffffffffffffffffffffffff82169050919050565b6100ff816100c4565b811461010a57600080fd5b50565b61034c8061011c6000396000f3fe608060405234801561001057600080fd5b50600436106100415760003560e01c80636ea8bc10146100465780639aeb6b3014610064578063ced066c914610080575b600080fd5b61004e61009e565b60405161005b91906101f1565b60405180910390f35b61007e600480360381019061007991906101a6565b6100a8565b005b610088610187565b60405161009591906101f1565b60405180910390f35b6000600254905090565b60008054906101000a900473ffffffffffffffffffffffffffffffffffffffff1673ffffffffffffffffffffffffffffffffffffffff163373ffffffffffffffffffffffffffffffffffffffff161461010057600080fd5b600081141561010e57600190505b600082141561011c57600191505b60006113888261012c919061023d565b9050826103e861013c919061023d565b6002600082825461014d919061023d565b925050819055508060026000828254610166919061020c565b9250508190555061271060025411610182576127106002819055505b505050565b6000600154905090565b6000813590506101a0816102ff565b92915050565b600080604083850312156101b957600080fd5b60006101c785828601610191565b92505060206101d885828601610191565b9150509250929050565b6101eb81610297565b82525050565b600060208201905061020660008301846101e2565b92915050565b600061021782610297565b915061022283610297565b925082610232576102316102d0565b5b828204905092915050565b600061024882610297565b915061025383610297565b9250817fffffffffffffffffffffffffffffffffffffffffffffffffffffffffffffffff048311821515161561028c5761028b6102a1565b5b828202905092915050565b6000819050919050565b7f4e487b7100000000000000000000000000000000000000000000000000000000600052601160045260246000fd5b7f4e487b7100000000000000000000000000000000000000000000000000000000600052601260045260246000fd5b61030881610297565b811461031357600080fd5b5056fea264697066735822122082d44370ab1957e12fc7cc11eb6a2cd15bf3d7975b13235c9cec248455c015ca64736f6c6343000800003360806040523480156200001157600080fd5b5060405162001a0e38038062001a0e833981810160405281019062000037919062000152565b816000806101000a81548173ffffffffffffffffffffffffffffffffffffffff021916908373ffffffffffffffffffffffffffffffffffffffff16021790555080600160006101000a81548173ffffffffffffffffffffffffffffffffffffffff021916908373ffffffffffffffffffffffffffffffffffffffff160217905550600360009080600181540180825580915050600190039060005260206000200160009091909190916101000a81548173ffffffffffffffffffffffffffffffffffffffff021916908373ffffffffffffffffffffffffffffffffffffffff16021790555050506200020f565b6000815190506200013581620001db565b92915050565b6000815190506200014c81620001f5565b92915050565b600080604083850312156200016657600080fd5b6000620001768582860162000124565b925050602062000189858286016200013b565b9150509250929050565b6000620001a082620001bb565b9050919050565b6000620001b48262000193565b9050919050565b600073ffffffffffffffffffffffffffffffffffffffff82169050919050565b620001e68162000193565b8114620001f257600080fd5b50565b6200020081620001a7565b81146200020c57600080fd5b50565b6117ef806200021f6000396000f3fe608060405234801561001057600080fd5b506004361061007d5760003560e01c80636528a0201161005b5780636528a020146101125780637b1e52a514610130578063cb552b4614610160578063f6cd25f0146101905761007d565b806308a18711146100825780632037a7aa146100b25780632bfd740f146100e2575b600080fd5b61009c600480360381019061009791906110d7565b6101ac565b6040516100a99190611424565b60405180910390f35b6100cc60048036038101906100c79190611085565b610899565b6040516100d99190611446565b60405180910390f35b6100fc60048036038101906100f79190611085565b6108e5565b6040516101099190611446565b60405180910390f35b61011a610ac4565b6040516101279190611521565b60405180910390f35b61014a60048036038101906101459190611085565b610ace565b6040516101579190611521565b60405180910390f35b61017a60048036038101906101759190611085565b610b17565b6040516101879190611521565b60405180910390f35b6101aa60048036038101906101a59190611085565b610d48565b005b606060008054906101000a900473ffffffffffffffffffffffffffffffffffffffff1673ffffffffffffffffffffffffffffffffffffffff163373ffffffffffffffffffffffffffffffffffffffff161461020657600080fd5b60008511610249576040517f08c379a0000000000000000000000000000000000000000000000000000000008152600401610240906114a1565b60405180910390fd5b60006002549050600084849050905060005b81811015610319576000600460008888858181106102a2577f4e487b7100000000000000000000000000000000000000000000000000000000600052603260045260246000fd5b90506020020160208101906102b79190611085565b73ffffffffffffffffffffffffffffffffffffffff1673ffffffffffffffffffffffffffffffffffffffff168152602001908152602001600020541461030657828061030290611689565b9350505b8080610311906116b3565b91505061025b565b508187111561035d576040517f08c379a000000000000000000000000000000000000000000000000000000000815260040161035490611461565b60405180910390fd5b60008767ffffffffffffffff81111561039f577f4e487b7100000000000000000000000000000000000000000000000000000000600052604160045260246000fd5b6040519080825280602002602001820160405280156103cd5781602001602082028036833780820191505090505b50905060008867ffffffffffffffff811115610412577f4e487b7100000000000000000000000000000000000000000000000000000000600052604160045260246000fd5b6040519080825280602002602001820160405280156104405781602001602082028036833780820191505090505b5090506000600160009054906101000a900473ffffffffffffffffffffffffffffffffffffffff1673ffffffffffffffffffffffffffffffffffffffff1663e8b81a228a6040518263ffffffff1660e01b81526004016104a09190611521565b60206040518083038186803b1580156104b857600080fd5b505afa1580156104cc573d6000803e3d6000fd5b505050506040513d601f19601f820116820180604052508101906104f091906110ae565b905060005b8a8110156107fd57600060016002548461050f91906116fc565b6105199190611586565b905060005b8061068e576006600083815260200190815260200160002060009054906101000a900460ff1661065a576001905060005b87811015610658578b8b82818110610590577f4e487b7100000000000000000000000000000000000000000000000000000000600052603260045260246000fd5b90506020020160208101906105a59190611085565b73ffffffffffffffffffffffffffffffffffffffff16600384815481106105f5577f4e487b7100000000000000000000000000000000000000000000000000000000600052603260045260246000fd5b9060005260206000200160009054906101000a900473ffffffffffffffffffffffffffffffffffffffff1673ffffffffffffffffffffffffffffffffffffffff1614156106455760009150610658565b8080610650906116b3565b91505061054f565b505b8061068957818061066a906116b3565b925050600160025461067c9190611586565b82141561068857600191505b5b61051e565b60016006600084815260200190815260200160002060006101000a81548160ff021916908315150217905550818684815181106106f4577f4e487b7100000000000000000000000000000000000000000000000000000000600052603260045260246000fd5b6020026020010181815250506003828154811061073a577f4e487b7100000000000000000000000000000000000000000000000000000000600052603260045260246000fd5b9060005260206000200160009054906101000a900473ffffffffffffffffffffffffffffffffffffffff1685848151811061079e577f4e487b7100000000000000000000000000000000000000000000000000000000600052603260045260246000fd5b602002602001019073ffffffffffffffffffffffffffffffffffffffff16908173ffffffffffffffffffffffffffffffffffffffff1681525050600254846107e691906115dc565b9350505080806107f5906116b3565b9150506104f5565b5060005b8a81101561088857600060066000868481518110610848577f4e487b7100000000000000000000000000000000000000000000000000000000600052603260045260246000fd5b6020026020010151815260200190815260200160002060006101000a81548160ff0219169083151502179055508080610880906116b3565b915050610801565b508195505050505050949350505050565b600080600460008473ffffffffffffffffffffffffffffffffffffffff1673ffffffffffffffffffffffffffffffffffffffff1681526020019081526020016000205414159050919050565b60008060009054906101000a900473ffffffffffffffffffffffffffffffffffffffff1673ffffffffffffffffffffffffffffffffffffffff163373ffffffffffffffffffffffffffffffffffffffff161461094057600080fd5b6000600460008473ffffffffffffffffffffffffffffffffffffffff1673ffffffffffffffffffffffffffffffffffffffff1681526020019081526020016000205411806109cd57506000600560008473ffffffffffffffffffffffffffffffffffffffff1673ffffffffffffffffffffffffffffffffffffffff16815260200190815260200160002054115b610a0c576040517f08c379a0000000000000000000000000000000000000000000000000000000008152600401610a0390611501565b60405180910390fd5b600560008373ffffffffffffffffffffffffffffffffffffffff1673ffffffffffffffffffffffffffffffffffffffff1681526020019081526020016000206000815480929190610a5c906116b3565b91905055506003600560008473ffffffffffffffffffffffffffffffffffffffff1673ffffffffffffffffffffffffffffffffffffffff1681526020019081526020016000205410610aba57610ab182610d48565b60019050610abf565b600090505b919050565b6000600254905090565b6000600560008373ffffffffffffffffffffffffffffffffffffffff1673ffffffffffffffffffffffffffffffffffffffff168152602001908152602001600020549050919050565b60008060009054906101000a900473ffffffffffffffffffffffffffffffffffffffff1673ffffffffffffffffffffffffffffffffffffffff163373ffffffffffffffffffffffffffffffffffffffff1614610b7257600080fd5b6000600460008473ffffffffffffffffffffffffffffffffffffffff1673ffffffffffffffffffffffffffffffffffffffff1681526020019081526020016000205414610bf4576040517f08c379a0000000000000000000000000000000000000000000000000000000008152600401610beb906114e1565b60405180910390fd5b6003600560008473ffffffffffffffffffffffffffffffffffffffff1673ffffffffffffffffffffffffffffffffffffffff1681526020019081526020016000205410610c76576040517f08c379a0000000000000000000000000000000000000000000000000000000008152600401610c6d906114c1565b60405180910390fd5b600060038054905090506003839080600181540180825580915050600190039060005260206000200160009091909190916101000a81548173ffffffffffffffffffffffffffffffffffffffff021916908373ffffffffffffffffffffffffffffffffffffffff16021790555060026000815480929190610cf6906116b3565b919050555080600460008573ffffffffffffffffffffffffffffffffffffffff1673ffffffffffffffffffffffffffffffffffffffff1681526020019081526020016000208190555080915050919050565b60008054906101000a900473ffffffffffffffffffffffffffffffffffffffff1673ffffffffffffffffffffffffffffffffffffffff163373ffffffffffffffffffffffffffffffffffffffff1614610da057600080fd5b6000600460008373ffffffffffffffffffffffffffffffffffffffff1673ffffffffffffffffffffffffffffffffffffffff1681526020019081526020016000205490506000811415610e28576040517f08c379a0000000000000000000000000000000000000000000000000000000008152600401610e1f90611481565b60405180910390fd5b60006001600380549050610e3c919061160d565b9050808214610f2d5760038181548110610e7f577f4e487b7100000000000000000000000000000000000000000000000000000000600052603260045260246000fd5b9060005260206000200160009054906101000a900473ffffffffffffffffffffffffffffffffffffffff1660038381548110610ee4577f4e487b7100000000000000000000000000000000000000000000000000000000600052603260045260246000fd5b9060005260206000200160006101000a81548173ffffffffffffffffffffffffffffffffffffffff021916908373ffffffffffffffffffffffffffffffffffffffff1602179055505b6003805480610f65577f4e487b7100000000000000000000000000000000000000000000000000000000600052603160045260246000fd5b6001900381819060005260206000200160006101000a81549073ffffffffffffffffffffffffffffffffffffffff0219169055905560026000815480929190610fad90611689565b91905055506000600460008573ffffffffffffffffffffffffffffffffffffffff1673ffffffffffffffffffffffffffffffffffffffff16815260200190815260200160002081905550505050565b60008135905061100b8161178b565b92915050565b60008083601f84011261102357600080fd5b8235905067ffffffffffffffff81111561103c57600080fd5b60208301915083602082028301111561105457600080fd5b9250929050565b60008135905061106a816117a2565b92915050565b60008151905061107f816117a2565b92915050565b60006020828403121561109757600080fd5b60006110a584828501610ffc565b91505092915050565b6000602082840312156110c057600080fd5b60006110ce84828501611070565b91505092915050565b600080600080606085870312156110ed57600080fd5b60006110fb8782880161105b565b945050602061110c8782880161105b565b935050604085013567ffffffffffffffff81111561112957600080fd5b61113587828801611011565b925092505092959194509250565b600061114f838361115b565b60208301905092915050565b61116481611641565b82525050565b60006111758261154c565b61117f8185611564565b935061118a8361153c565b8060005b838110156111bb5781516111a28882611143565b97506111ad83611557565b92505060018101905061118e565b5085935050505092915050565b6111d181611653565b82525050565b60006111e4603183611575565b91507f4a7572792073697a6520697320746f6f206269672c206e6f7420656e6f75676860008301527f206a75726f727320617661696c61626c650000000000000000000000000000006020830152604082019050919050565b600061124a604083611575565b91507f596f75206e65656420746f2062652061206a75726f7220696e2074686520666960008301527f72737420706c61636520696e206f7264657220746f2062652072656d6f7665646020830152604082019050919050565b60006112b0602283611575565b91507f4a7572792073697a65206d757374206265206120706f7369746976652076616c60008301527f75650000000000000000000000000000000000000000000000000000000000006020830152604082019050919050565b6000611316602783611575565b91507f596f752068617665206265656e2062616e6e65642066726f6d206265696e672060008301527f61206a75726f72000000000000000000000000000000000000000000000000006020830152604082019050919050565b600061137c601783611575565b91507f596f752061726520616c72656164792061206a75726f720000000000000000006000830152602082019050919050565b60006113bc602e83611575565b91507f537065636966696564206a75726f72206973206e6f742063757272656e746c7960008301527f20696e207468652073797374656d0000000000000000000000000000000000006020830152604082019050919050565b61141e8161167f565b82525050565b6000602082019050818103600083015261143e818461116a565b905092915050565b600060208201905061145b60008301846111c8565b92915050565b6000602082019050818103600083015261147a816111d7565b9050919050565b6000602082019050818103600083015261149a8161123d565b9050919050565b600060208201905081810360008301526114ba816112a3565b9050919050565b600060208201905081810360008301526114da81611309565b9050919050565b600060208201905081810360008301526114fa8161136f565b9050919050565b6000602082019050818103600083015261151a816113af565b9050919050565b60006020820190506115366000830184611415565b92915050565b6000819050602082019050919050565b600081519050919050565b6000602082019050919050565b600082825260208201905092915050565b600082825260208201905092915050565b60006115918261167f565b915061159c8361167f565b9250827fffffffffffffffffffffffffffffffffffffffffffffffffffffffffffffffff038211156115d1576115d061172d565b5b828201905092915050565b60006115e78261167f565b91506115f28361167f565b9250826116025761160161175c565b5b828204905092915050565b60006116188261167f565b91506116238361167f565b9250828210156116365761163561172d565b5b828203905092915050565b600061164c8261165f565b9050919050565b60008115159050919050565b600073ffffffffffffffffffffffffffffffffffffffff82169050919050565b6000819050919050565b60006116948261167f565b915060008214156116a8576116a761172d565b5b600182039050919050565b60006116be8261167f565b91507fffffffffffffffffffffffffffffffffffffffffffffffffffffffffffffffff8214156116f1576116f061172d565b5b600182019050919050565b60006117078261167f565b91506117128361167f565b9250826117225761172161175c565b5b828206905092915050565b7f4e487b7100000000000000000000000000000000000000000000000000000000600052601160045260246000fd5b7f4e487b7100000000000000000000000000000000000000000000000000000000600052601260045260246000fd5b61179481611641565b811461179f57600080fd5b50565b6117ab8161167f565b81146117b657600080fd5b5056fea26469706673582212200dbd17d1b5d20c612a8c8da5133b57c53efb85a757a5d558597a750525dacb4d64736f6c63430008000033",
  "immutableReferences": {},
  "source": "// SPDX-License-Identifier: MIT\n\npragma solidity ^0.8.0;\n\nimport \"./UnisonToken.sol\";\nimport \"./Structs/AgreementLib.sol\";\nimport \"./JurorStore.sol\";\nimport \"./FeeContract.sol\";\n\n// pragma experimental ABIEncoderV2;\n\ncontract Verifier{\n    using AgreementLib for AgreementLib.Agreement;\n    using AgreementLib for AgreementLib.Jury;\n\n    uint private nextAgreeID = 0;\n    uint private numActive = 0; //number of active agreements\n\n    // Non-existent entries will return a struct filled with 0's\n    mapping(uint => AgreementLib.Agreement) private agreements;\n    mapping(uint => AgreementLib.Jury) private juries;\n\n    JurorStore private jurorStore;\n    uint private jurySeed = 10;\n    UnisonToken private unisonToken;\n    FeeContract private feeContract;\n\n    // Fraction out of a thousand\n    uint constant controversyRatio = 300;\n\n    constructor(UnisonToken token, RandomSource randomSource){\n        unisonToken = token;\n        feeContract = new FeeContract(address(this));\n        jurorStore = new JurorStore(address(this), randomSource);\n    }\n\n    // If agreements[agreeID] is null, this will also fail since tx.origin will never be 0\n    modifier inAgreement(uint agreeID){\n        require(tx.origin == agreements[agreeID].party1 || tx.origin == agreements[agreeID].party2);\n        _;\n    }\n\n    function _addPaymentToAgreement(uint256 agreeID, PaymentInfoLib.PaymentInfo memory payment) internal{\n        agreements[agreeID].payments[agreements[agreeID].numPayments] = payment;\n        agreements[agreeID].numPayments++;\n    }\n\n    function _payoutAgreement(uint agreeID) internal{\n        for(uint i=0; i<agreements[agreeID].numPayments; i++){\n            PaymentInfoLib.PaymentInfo memory payment = agreements[agreeID].payments[i];\n            payment.token.transfer(payment.to, payment.amount);\n        }\n    }\n\n    function _refundAgreement(uint agreeID) internal{\n        for(uint i=0; i<agreements[agreeID].numPayments; i++){\n            PaymentInfoLib.PaymentInfo memory payment = agreements[agreeID].payments[i];\n            payment.token.transfer(payment.from, payment.amount);\n        }\n    }\n\n    function createAgreement(address party2, uint resolutionTime, string calldata text, string memory uuid,\n             IERC20[] calldata tokens, uint256[] calldata amount, bool[] calldata direction) public{\n        // A resolution time in the past is allowed and will mean that the agreement can be resolved at an time after its creation\n        // direction is true if from party1 to party2, false otherwise\n\n        // General agreement terms\n        agreements[nextAgreeID].party1 = tx.origin;\n        agreements[nextAgreeID].party2 = party2;\n        agreements[nextAgreeID].resolutionTime = resolutionTime;\n        agreements[nextAgreeID].text = text;\n        agreements[nextAgreeID].state = AgreementLib.AgreementState.PROPOSED;\n        agreements[nextAgreeID].platformFee = getPlatformFee();\n        agreements[nextAgreeID].uuid = uuid;\n\n\n        AgreementLib.addPayments(agreements[nextAgreeID], party2, tokens, amount, direction);\n\n        emit CreateAgreement(tx.origin, party2, nextAgreeID, uuid);\n        nextAgreeID++;\n    }\n\n    function acceptAgreement(uint agreeID) public{\n        // if(agreements[agreeID].party1 == address(0))\n        //     return;\n        require(agreements[agreeID].state == AgreementLib.AgreementState.PROPOSED);\n        require(tx.origin == agreements[agreeID].party2, \"E16\");\n\n        AgreementLib.requirePaidIn(agreements[agreeID]);\n\n        agreements[agreeID].state = AgreementLib.AgreementState.ACCEPTED;\n        emit AcceptAgreement(agreeID);\n    }\n\n    function rejectAgreement(uint agreeID) public inAgreement(agreeID){\n        require(agreements[agreeID].state == AgreementLib.AgreementState.PROPOSED ||\n            agreements[agreeID].state == AgreementLib.AgreementState.ACCEPTED, \"E4\");\n\n        // If accepted but not active, it means the platform fee hasn't been paid yet\n        // Therefore there is not state where a rejected agreement has a paid platform fee\n\n        for(uint i=0; i<agreements[agreeID].numPayments; i++){\n            // Doesn't use _rejectAgreement, since that function assumes paidIn == true\n            if(agreements[agreeID].payments[i].paidIn){\n                PaymentInfoLib.PaymentInfo memory payment = agreements[agreeID].payments[i];\n                payment.token.transfer(payment.from, payment.amount);\n            }\n        }\n\n        agreements[agreeID].state = AgreementLib.AgreementState.REJECTED;\n    }\n\n    // Call this method to pay all of your payment conditions, you must set the appropriate allowances before calling it\n    function payIn(uint agreeID) external{\n        require(agreements[agreeID].state == AgreementLib.AgreementState.PROPOSED, \"E4\");\n\n        for(uint i=0; i<agreements[agreeID].numPayments; i++){\n            if(agreements[agreeID].payments[i].from != tx.origin)\n                continue;\n\n            // Check allowance and then call transferFrom\n            uint256 allowed = agreements[agreeID].payments[i].token.allowance(tx.origin, address(this));\n            require(allowed >= agreements[agreeID].payments[i].amount, \"E5\");\n            agreements[agreeID].payments[i].token.transferFrom(tx.origin, address(this), agreements[agreeID].payments[i].amount);\n            agreements[agreeID].payments[i].paidIn = true;            \n        }\n    }\n\n\n    function payPlatformFee(uint agreeID) public{\n        // Anyone can pay the platform fee, it does not even have to be one of the\n        // parties involved in the agreement\n\n        // Was first intended to be payable by multiple people, but for now it can only be paid by one person.\n        // Front-end doesn't use split platform fees yet, but fixing a bug it had would require an api-change\n\n        require(agreements[agreeID].state == AgreementLib.AgreementState.ACCEPTED);\n\n        uint256 payment = agreements[agreeID].platformFee - agreements[agreeID].feePaid;\n        require(payment > 0);\n\n        uint256 allowed = unisonToken.allowance(tx.origin, address(this));\n        require(allowed >= payment, \"E5\");\n\n        if(unisonToken.transferFrom(tx.origin, address(this), payment)){\n            agreements[agreeID].feePaid += payment;\n            agreements[agreeID].feePayer = tx.origin;\n            if(agreements[agreeID].feePaid == agreements[agreeID].platformFee){\n                agreements[agreeID].state = AgreementLib.AgreementState.ACTIVE;\n                numActive++;\n                emit ActiveAgreement(agreeID);\n            }\n        }\n        else{\n            require(false, \"E17\");\n        }\n\n        feeContract.updatePlatformFee(numActive, jurorStore.getNumJurors());\n    }\n\n\n    function getAgreement(uint agreeID) public view returns(AgreementLib.ReturnAgreement memory){\n        return AgreementLib.makeReturnAgreement(agreements[agreeID]);\n    }\n\n    function getJury(uint agreeID) public view returns(AgreementLib.ReturnJury memory){\n        return AgreementLib.makeReturnJury(juries[agreeID]);\n    }\n\n    function getEvidence(uint agreeID) external view returns(AgreementLib.ReturnEvidence memory){\n        return AgreementLib.makeReturnEvidence(juries[agreeID]);\n    }\n\n    function addEvidence(uint agreeID, string calldata url, uint256 evidenceHash) public inAgreement(agreeID){\n        require(agreements[agreeID].state == AgreementLib.AgreementState.CONTESTED, \"E6\");\n        AgreementLib.addEvidence(juries[agreeID], url, evidenceHash);\n    }\n\n    function _assignJury(uint agreeID) internal{\n        address[] memory noUse = new address[](2);\n        noUse[0] = agreements[agreeID].party1;\n        noUse[1] = agreements[agreeID].party2;\n\n\n        address[] memory jury = jurorStore.assignJury(5, jurySeed, noUse);\n        jurySeed += 0xAA;\n\n        for(uint i=0; i<jury.length; i++){\n            juries[agreeID].jurors[i] = jury[i];\n        }\n        // Deadline is 10 minutes from now\n        juries[agreeID].deadline = block.timestamp + 60000;\n\n        juries[agreeID].numJurors = jury.length;\n\n        juries[agreeID].assigned = true;\n        agreements[agreeID].state = AgreementLib.AgreementState.CONTESTED;\n        emit JuryAssigned(agreeID, jury);\n    }\n\n    function voteResolution(uint agreeID, AgreementLib.Vote vote) public{\n        // Cannot be called if other party already voted no\n        AgreementLib.voteResolution(agreements[agreeID], vote);\n\n        // update state after vote\n        if(vote == AgreementLib.Vote.NO){\n            // If at least one party voted no, agreement becomes contested\n            _assignJury(agreeID);\n        }\n        else if(agreements[agreeID].party1Vote == AgreementLib.Vote.YES && \n                agreements[agreeID].party2Vote == AgreementLib.Vote.YES){\n            // Both parties voted yes\n\n            // Refund platform fee\n            unisonToken.transfer(agreements[agreeID].feePayer, agreements[agreeID].feePaid);\n\n            // Pay out all payment conditions\n            _payoutAgreement(agreeID);\n\n            // Close the agreement\n            agreements[agreeID].state = AgreementLib.AgreementState.CLOSED;\n            numActive--;\n            emit CloseAgreement(agreeID);\n        }\n    }\n\n    // Sign yourself up to become a juror\n    // You have to approve an allowance for the staked coins\n    function addJuror() public{\n        address j = tx.origin;\n\n        uint allowed = unisonToken.allowance(j, address(this));\n        require(allowed >= getStakingAmount());\n        unisonToken.transferFrom(j, address(this), getStakingAmount());\n\n        jurorStore.addJuror(j);\n        emit AddJuror(j);\n\n        feeContract.updatePlatformFee(numActive, jurorStore.getNumJurors());\n    }\n\n    // remove yourself from available jurors list\n    function removeJuror() public{\n        jurorStore.removeJuror(tx.origin);\n        unisonToken.transfer(tx.origin, getStakingAmount());\n        emit RemoveJuror(tx.origin);\n\n        feeContract.updatePlatformFee(numActive, jurorStore.getNumJurors());\n    }\n\n    function _juryMakeDecision(uint agreeID) internal{\n        // Time to tally up votes & make a decision\n        uint yes = 0;\n        uint no =0;\n\n        for(uint i=0; i < juries[agreeID].numJurors; i++){\n            AgreementLib.Vote v = juries[agreeID].votes[i];\n            if(v == AgreementLib.Vote.NO){\n                no++;\n            }\n            else if(v == AgreementLib.Vote.YES){\n                yes++;\n            }\n        }\n\n        AgreementLib.Vote decision;\n        uint payPerJuror;\n        uint controversy;\n\n        if(no > yes){\n            // Jury voted no, do a refund\n            decision = AgreementLib.Vote.NO;\n            _refundAgreement(agreeID);\n            payPerJuror = agreements[agreeID].feePaid / no;\n            controversy = (1000 * yes) /(no + yes);\n        }\n        else{\n            // Jury voted yes (even result is counted as yes), pay out as normal\n            decision = AgreementLib.Vote.YES;\n            _payoutAgreement(agreeID);\n            if(yes > 0)\n                payPerJuror = agreements[agreeID].feePaid / yes;\n            controversy = (1000 * no) /(no + yes);\n        }\n\n        // Pay the jurors who voted correctly\n        for(uint i=0; i<juries[agreeID].numJurors; i++){\n            if(juries[agreeID].votes[i] == decision){\n                unisonToken.transfer(juries[agreeID].jurors[i], payPerJuror);\n            }\n        }\n\n        // Currently, abstaining is not punished. You only miss out on your payment if you abstain\n\n        // Punish any malicious jurors\n        if(controversy != 0 && controversy <= controversyRatio){\n            // controversy used to avoid punishing jurors on difficult cases\n            // controversy of 0 means the decision was unanimous and this step isn't needed\n            AgreementLib.Vote wrongVote;\n            if(decision == AgreementLib.Vote.YES)\n                wrongVote = AgreementLib.Vote.NO;\n            else\n                wrongVote =  AgreementLib.Vote.YES;\n\n            for(uint i=0; i<juries[agreeID].numJurors; i++){\n                if(juries[agreeID].votes[i] == wrongVote)\n                    jurorStore.addStrike(juries[agreeID].jurors[i]);\n\n            }\n        }\n\n\n        agreements[agreeID].state = AgreementLib.AgreementState.CLOSED;\n        numActive--;\n        emit CloseAgreement(agreeID);\n    }\n\n    function isJuror(address a) public view returns(bool){\n        return jurorStore.isJuror(a);\n    }\n\n    function getStrikes(address a) public view returns(uint){\n        return jurorStore.getStrikes(a);\n    }\n\n    function jurorVote(uint agreeID, AgreementLib.Vote vote) public{\n        if(AgreementLib.juryVote(juries[agreeID], vote))\n            _juryMakeDecision(agreeID);\n\n    }\n\n    function triggerPayout(uint agreeID) public{\n        // If not all jury members voted, this will be needed to finish the agreement\n        // (since code execution must come from someone)\n\n        require(juries[agreeID].assigned, \"E11\");\n        require(juries[agreeID].deadline <= block.timestamp, \"E14\");\n        require(agreements[agreeID].state != AgreementLib.AgreementState.CLOSED, \"E15\");\n\n        _juryMakeDecision(agreeID);\n\n    }\n\n    function getPlatformFee() public view returns(uint){\n        return feeContract.getPlatformFee();\n    }\n\n    function getStakingAmount() public view returns(uint){\n        return feeContract.getStakingAmount();\n    }\n\n    event CreateAgreement(address party1, address party2, uint agreeID, string uuid);\n    event AcceptAgreement(uint agreeID);\n    event ActiveAgreement(uint agreeID);\n    event CloseAgreement(uint agreeID);\n\n    event JuryAssigned(uint agreeID, address[] jury);\n\n    event AddJuror(address juror);\n    event RemoveJuror(address juror);\n\n}",
  "sourcePath": "/home/hardunel/work/projects/SCV/SmartContract/src/Verifier.sol",
  "compiler": {
    "name": "solc",
    "version": "0.8.0+commit.c7dfd78e.Emscripten.clang"
  },
  "schemaVersion": "3.4.10",
  "updatedAt": "2022-12-16T10:43:58.632Z",
  "networkType": "ethereum",
  "devdoc": {
    "kind": "dev",
    "methods": {},
    "version": 1
  },
  "userdoc": {
    "kind": "user",
    "methods": {},
    "version": 1
  }
}